:020000040800F2
:100000000028002061280008352600083B2600084B
:1000100041260008472600084D2600080000000081
:10002000000000000000000000000000532600084F
:100030005F260008000000006B26000877260008F5
:10004000A9280008A9280008A9280008A92800084C
:10005000A9280008A9280008A9280008A92800083C
:10006000A9280008A9280008A9280008A92800082C
:10007000A9280008A9280008A9280008A92800081C
:10008000A9280008A9280008A9280008A92800080C
:10009000A9280008A9280008A9280008A9280008FC
:1000A000A9280008A9280008A9280008A9280008EC
:1000B00085260008A928000800000000A9280008DB
:1000C000A92800080000000000000000A92800087E
:1000D00000000000A9280008A9280008000000006E
:1000E000A9280008A9280008A92800080000000085
:1000F0000000000000000000000000000000000000
:0C01000000000000000000005FF808F1A3
:10010C0010B5054C237833B9044B13B10448AFF345
:10011C0000800123237010BD74000020000000003B
:10012C00D83E000808B5034B1BB103490348AFF395
:10013C00008008BD0000000078000020D83E0008B8
:10014C0080B483B000AF7860094A7B6852F82330E2
:10015C00012B06D1064A7B68002142F823100123AB
:10016C0000E0002318460C37BD4680BC704700BF2A
:10017C009000002080B483B000AF7860044A7B68A4
:10018C00012142F8231000BF0C37BD4680BC7047DC
:10019C009000002080B582B000AF00237B606DE042
:1001AC003A4A7B6852F8232039497B6841F823206E
:1001BC00384A7B6852F8232034497B6841F8232065
:1001CC00354A7B6852F8232034497B6831F8133068
:1001DC001946104602F04EFE034619462D4A7B681E
:1001EC0042F823102A4A7B6852F8232027497B685F
:1001FC0051F823309A423ED1244A7B6852F823208E
:10020C0024497B6851F823309A4234D1244A7B68C4
:10021C0052F823201F497B6851F823309A4216D09C
:10022C001C4A7B6852F823201D497B6841F8232027
:10023C00184A7B6852F82330002B1CD17868FFF7E2
:10024C0099FF184A7B68C82142F8231013E0154A1D
:10025C007B6852F823305A1E12497B6841F82320E0
:10026C00104A7B6852F82330002B04D10C4A7B686F
:10027C00012142F823107B6801337B607B68022BE1
:10028C008EDD00BF00BF0837BD4680BD0C000020CE
:10029C0000000020180000203C0000204800002036
:1002AC00240000203000002080B500AF654B1B6897
:1002BC00013B042B00F2358301A252F823F000BF5E
:1002CC00E10200082B06000845070008E9070008B2
:1002DC008D08000802F0E0F900F0E6FF5A4B1A68AE
:1002EC005A4B1B6813445A1C594B1B689A4240F0DA
:1002FC00D380574B1B68574A1360534B1B68564AA5
:10030C001360524B1B68554A1360554B00221A6000
:10031C00544B00221A604B4B02221A606422322189
:10032C00514801F08DFF03461A46504B1A60642267
:10033C0000214F4801F084FF03461A464D4B1A60CA
:10034C00454B1B68642202FB03F31946414B1A68A8
:10035C00414B1B681A44414B1B6813440333642202
:10036C0002FB03F31A46444801F06AFF03461A469F
:10037C00424B1A60384B1A68384B1B6813440133D4
:10038C00642202FB03F31946324B1A68324B1B688A
:10039C001A44324B1B6813440333642202FB03F3ED
:1003AC001A46374801F04CFF03461A46354B1A6083
:1003BC00294B1A68294B1B6813445A1C264B1B6883
:1003CC0013440133642202FB03F31946214B1A68D0
:1003DC00214B1B681A44214B1B68134403336422C2
:1003EC0002FB03F31A46284801F02AFF03461A467B
:1003FC00264B1A60184B1A68184B1B6813445A1C6E
:10040C00154B1B6813445A1C144B1B6813440133C3
:10041C00642202FB03F319460E4B1A680E4B1B6841
:10042C001A440E4B1B6813440333642202FB03F380
:10043C001A46174801F004FF03461A46154B1A607A
:10044C0078E200BFAC0000206000002064000020B7
:10045C005C000020500000205400002058000020B8
:10046C00B4000020B000002009150008C4000020D2
:10047C00D5170008F0000020F5110008F800002046
:10048C0095110008D800002035110008C800002084
:10049C0055120008E00000208A4B1B688A4A136042
:1004AC008A4B1B688A4A13608A4B1B688A4A136002
:1004BC008A4B00221A608A4B00221A60894B022256
:1004CC001A6064223221884801F0BAFE03461A46AB
:1004DC00864B1A6064220021854801F0B1FE034668
:1004EC001A46844B1A60794B1B68642202FB03F397
:1004FC001946764B1A68774B1B681A44734B1B686A
:10050C0013445A1C734B1B681A44704B1B681344DE
:10051C00642202FB03F31A46774801F091FE03466E
:10052C001A46764B1A60694B1A686A4B1B6813445F
:10053C000133642202FB03F31946644B1A68654BC2
:10054C001B681A44614B1B6813445A1C614B1B6893
:10055C001A445E4B1B681344642202FB03F31A46D5
:10056C00674801F06DFE03461A46664B1A60574BFE
:10057C001A68584B1B6813445A1C544B1B68134481
:10058C000133642202FB03F31946504B1A68514B9A
:10059C001B681A444D4B1B6813445A1C4D4B1B686B
:1005AC001A444A4B1B681344642202FB03F31A4699
:1005BC00554801F045FE03461A46544B1A60434B0E
:1005CC001A68444B1B6813445A1C404B1B68134459
:1005DC005A1C404B1B6813440133642202FB03F387
:1005EC0019463A4B1A683B4B1B6813445A1C374B41
:1005FC001B6813445A1C374B1B6813445A1C334B4F
:10060C001B681344023B642202FB03F31A46404866
:10061C0001F016FE03461A463E4B1A608AE102F0C0
:10062C0089F80020FFF78CFD0346012B40F07B81FD
:10063C002C4B0C221A602D4B1B68DBB2184601F0B8
:10064C006BFE2C4B1B68DBB2184601F065FE2B4B86
:10065C001B68DBB2184601F05FFE2A4B1B68DBB24D
:10066C00184601F059FE294B1B68DBB2184601F005
:10067C0053FE284B1B68DBB2184601F04DFE64227A
:10068C003221254801F0DCFD03461A46234B1A6043
:10069C0064220021224801F0D3FD03461A46214B67
:1006AC001A6032223221204801F0CAFD03461A4654
:1006BC001E4B1A601E4B00221A601E4B00221A6041
:1006CC0031E100BF500000205C00002054000020ED
:1006DC00600000205800002064000020B4000020BE
:1006EC00B0000020AC00002009150008C400002058
:1006FC00D5170008F0000020F5110008F8000020C4
:10070C0095110008D800002035110008C800002001
:10071C0055120008E0000020791B0008D4000020CE
:10072C00991C0008EC000020BD1F0008E800002008
:10073C009C0000201001002002F020F80020FFF7A0
:10074C00FFFC0346012B40F0F0807B4B0C221A601F
:10075C007A4B1B68DBB2184601F0DEFD784B1B6848
:10076C00DBB2184601F0D8FD764B1B68DBB218469D
:10077C0001F0D2FD744B1B68DBB2184601F0CCFDC6
:10078C00724B1B68DBB2184601F0C6FD704B1B6840
:10079C00DBB2184601F0C0FD642232216D4801F035
:1007AC004FFD03461A466C4B1A60642200216B48BD
:1007BC0001F046FD03461A46694B1A60322232217B
:1007CC00684801F03DFD03461A46674B1A60674BBB
:1007DC0000221A60664B00221A60A6E001F0F2FFBC
:1007EC000020FFF7ADFC0346012B40F0A080524BDC
:1007FC000C221A60514B1B68DBB2184601F08CFDC1
:10080C004F4B1B68DBB2184601F086FD4D4B1B6845
:10081C00DBB2184601F080FD4B4B1B68DBB218466F
:10082C0001F07AFD494B1B68DBB2184601F074FDF0
:10083C00474B1B68DBB2184601F06EFD6422322177
:10084C00444801F0FDFC03461A46434B1A606422EF
:10085C000021424801F0F4FC03461A46404B1A6052
:10086C00322232213F4801F0EBFC03461A463E4B44
:10087C001A603E4B00221A603D4B00221A6056E073
:10088C0001F0C4FF0020FFF75BFC0346012B50D1A5
:10089C00294B0C221A60294B1B68DBB2184601F05D
:1008AC003BFD274B1B68DBB2184601F035FD254B91
:1008BC001B68DBB2184601F02FFD234B1B68DBB223
:1008CC00184601F029FD214B1B68DBB2184601F0DC
:1008DC0023FD1F4B1B68DBB2184601F01DFD642283
:1008EC0032211C4801F0ACFC03461A461A4B1A6024
:1008FC0064220021194801F0A3FC03461A46184B48
:10090C001A6032223221174801F09AFC03461A462B
:10091C00154B1A60154B00221A60154B00221A60F9
:10092C0007E000BF06E000BF04E000BF02E000BF2C
:10093C0000E000BF00BF80BDAC000020C400002060
:10094C00F0000020F8000020D8000020C800002093
:10095C00E0000020791B0008D4000020991C00083E
:10096C00EC000020BD1F0008E80000209C000020C7
:10097C001001002080B500AF7E4B1B680E2B00F0E1
:10098C00BB800E2B00F3EF800C2B02D00D2B5BD019
:10099C00E9E0794B1B68002B06D101F089FE01F0D0
:1009AC0075F9754B01221A600020FFF7C9FB03464D
:1009BC00012B39D16F4B0D221A606F4B00221A603C
:1009CC006E4B1B686E4A13606E4B1B68DBB218468D
:1009DC0001F0A2FC6C4B1B68DBB2184601F09CFCCE
:1009EC006A4B1B68DBB2184601F096FC642232217C
:1009FC00674801F025FC03461A46664B1A606422D0
:100A0C000021654801F01CFC03461A46634B1A6032
:100A1C0032223221624801F013FC03461A46614B24
:100A2C001A60614B00221A600120FFF789FB034614
:100A3C00012B05D14F4B0F221A605C4B00221A6020
:100A4C000220FFF77DFB93E04B4B1B68002B06D17C
:100A5C0001F044FE01F0A0F9474B01221A6000207E
:100A6C00FFF76EFB0346012B39D1424B0E221A6065
:100A7C00414B00221A604E4B00221A604D4B1B68F2
:100A8C004D4A1360434B1B68DBB2184601F044FC23
:100A9C00424B1B68DBB2184601F03EFC414B1B6815
:100AAC00DBB2184601F038FC64223221434801F0D5
:100ABC00C7FB03461A46424B1A6064220021414888
:100ACC0001F0BEFB03461A463F4B1A60322232211C
:100ADC003E4801F0B5FB03461A463D4B1A60012017
:100AEC00FFF72EFB0346012B3FD1224B12221A603B
:100AFC00384B00221A6038E01F4B1B68002B06D1C4
:100B0C0001F002FE01F0CEF91B4B01221A6000200D
:100B1C00FFF716FB0346012B18D12F4B1B682F4AEE
:100B2C001360144B01221A60254B1B68DBB218466C
:100B3C0001F0F2FB244B1B68DBB2184601F0ECFB16
:100B4C00234B1B68DBB2184601F0E6FB0120FFF7D4
:100B5C00F7FA0346012B0AD1064B14221A60204BDC
:100B6C0000221A6003E000BF02E000BF00E000BFFB
:100B7C0000BF80BDAC0000209C0000205000002075
:100B8C005C000020D4000020EC000020E8000020D5
:100B9C00D91B0008D0000020A51D0008CC000020A7
:100BAC00D11F0008DC00002008010020A00000205C
:100BBC00BC0000205400002060000020391C0008FC
:100BCC00F4000020B11E0008FC000020E51F000806
:100BDC00E4000020A4000020580000206400002045
:100BEC00A800002080B500AFA74B1B680F3B062B5D
:100BFC0000F2628201A252F823F000BF250C00081B
:100C0C00010D0008C5100008B90D0008010F0008FF
:100C1C00B90F0008511000089C4B1B68002B08D121
:100C2C0001F046FD01F076F8984B1B680133974AAA
:100C3C0013600020FFF784FA0346012B39D1924B45
:100C4C000D221A60924B00221A60924B00221A60FD
:100C5C00914B1B68914A1360914B1B68DBB2184691
:100C6C0001F05AFB8F4B1B68DBB2184601F054FBAA
:100C7C008D4B1B68DBB2184601F04EFB642232210F
:100C8C008A4801F0DDFA03461A46894B1A60642241
:100C9C000021884801F0D4FA03461A46864B1A60A4
:100CAC0032223221854801F0CBFA03461A46844B96
:100CBC001A600120FFF744FA0346012B06D1734B4F
:100CCC001B680133714A136001F024F80220FFF70E
:100CDC0037FA0346012B40F0F1816B4B10221A605E
:100CEC006A4B00221A60704B1B68DBB2184601F08D
:100CFC0013FBE3E101F0DCFC724B1B68674A1360E9
:100D0C00624B1B68002B04D100F0C0FF5F4B01222B
:100D1C001A600020FFF714FA0346012B2FD15A4B0F
:100D2C000D221A605A4B00221A605A4B00221A608C
:100D3C005B4B1B68DBB2184601F0EEFA594B1B6893
:100D4C00DBB2184601F0E8FA64223221574801F070
:100D5C0077FA03461A46564B1A606422002155480E
:100D6C0001F06EFA03461A46534B1A6032223221B6
:100D7C00524801F065FA03461A46514B1A6001209D
:100D8C00FFF7DEF90346012B40F09A813E4B0F2210
:100D9C001A603E4B00221A60322232214A4801F07E
:100DAC004FFA03461A46404B1A6089E1474B1B68C1
:100DBC00002B08D101F092FC01F032F8434B1B6878
:100DCC000133424A13600020FFF7BAF90346012BA6
:100DDC0039D12D4B0E221A602D4B00221A603C4B40
:100DEC0000221A603B4B1B683B4A1360304B1B685C
:100DFC00DBB2184601F090FA2F4B1B68DBB2184699
:100E0C0001F08AFA2E4B1B68DBB2184601F084FA0B
:100E1C0064223221314801F013FA03461A46304B52
:100E2C001A60642200212F4801F00AFA03461A4680
:100E3C002D4B1A60322232212C4801F001FA034664
:100E4C001A462B4B1A600120FFF77AF90346012B47
:100E5C0006D11E4B1B6801331C4A136000F0E0FFE7
:100E6C000220FFF76DF90346012B40F02B81064B56
:100E7C0013221A60154B00221A60114B1B68DBB24F
:100E8C00184601F049FA1DE1AC000020A00000203A
:100E9C009C00002008010020500000205C00002075
:100EAC00D4000020EC000020E8000020D91B000832
:100EBC00D0000020A51D0008CC000020D11F000888
:100ECC00DC00002014010020BD1F0008A40000203D
:100EDC00BC0000205400002060000020391C0008D9
:100EEC00F4000020B11E0008FC000020E51F0008E3
:100EFC00E400002001F0F2FB774B1B68774A13608B
:100F0C00774B1B68002B04D100F046FF744B012279
:100F1C001A600020FFF714F90346012B2FD1714BF7
:100F2C000E221A60704B00221A60704B00221A605D
:100F3C006F4B1B68DBB2184601F0EEF96D4B1B686A
:100F4C00DBB2184601F0E8F9642232216A4801F05C
:100F5C0077F903461A46694B1A60642200216848E7
:100F6C0001F06EF903461A46664B1A6032223221A2
:100F7C00654801F065F903461A46644B1A60012076
:100F8C00FFF7DEF80346012B40F09E80554B1222F2
:100F9C001A60534B00221A60322232215C4801F055
:100FAC004FF903461A465B4B1A608DE05A4B1B688F
:100FBC00002B08D101F0A8FB00F0B8FF564B1B68C2
:100FCC000133554A13600020FFF7BAF80346012B92
:100FDC0018D1444B01221A60504B1B68504A1360C5
:100FEC00464B1B68DBB2184601F096F9454B1B6863
:100FFC00DBB2184601F090F9444B1B68DBB2184683
:10100C0001F08AF90120FFF79BF80346012B06D16A
:10101C00414B1B680133404A136000F087FF0220EC
:10102C00FFF78EF80346012B50D12E4B15221A6078
:10103C00394B00221A60354B1B68DBB2184601F0A5
:10104C006BF943E001F060FB364B1B68344A1360CC
:10105C00314B1B68002B04D100F024FF2E4B0122D6
:10106C001A600020FFF76CF80346012B0ED11D4BC4
:10107C0001221A60214B1B68DBB2184601F04CF9B7
:10108C00204B1B68DBB2184601F046F90120FFF734
:10109C0057F80346012B1BD1124B14221A601E4B1E
:1010AC0000221A6032223221134801F0C9F803469B
:1010BC001A46164B1A600BE000BF0AE000BF08E0AE
:1010CC0000BF06E000BF04E000BF02E000BF00E08C
:1010DC0000BF00BF80BD00BF0401002060000020E5
:1010EC00A4000020AC0000209C000020BC000020CC
:1010FC00D0000020CC000020391C0008F400002097
:10110C00B11E0008FC000020E51F0008E4000020D0
:10111C00D91B0008DC000020A8000020580000208B
:10112C0064000020B800002080B500AF114B0522F0
:10113C001A60114B1B68DBB2184601F0EDF80F4B2F
:10114C001B68DBB2184601F0E7F8642232210C4828
:10115C0001F076F803461A46074B1A606422002108
:10116C00084801F06DF803461A46044B1A6000BF9C
:10117C0080BD00BFAC000020C4000020F0000020A7
:10118C0009150008D517000880B500AF114B0422D3
:10119C001A60114B1B68DBB2184601F0BDF80F4BFF
:1011AC001B68DBB2184601F0B7F8642232210C48F8
:1011BC0001F046F803461A46074B1A6064220021D8
:1011CC00084801F03DF803461A46044B1A6000BF6C
:1011DC0080BD00BFAC000020C4000020F000002047
:1011EC0009150008D517000880B500AF114B032274
:1011FC001A60114B1B68DBB2184601F08DF80F4BCF
:10120C001B68DBB2184601F087F8642232210C48C7
:10121C0001F016F803461A46074B1A6064220021A7
:10122C00084801F00DF803461A46044B1A6000BF3B
:10123C0080BD00BFAC000020C4000020F0000020E6
:10124C0009150008D517000880B500AF114B022214
:10125C001A60114B1B68DBB2184601F05DF80F4B9E
:10126C001B68DBB2184601F057F8642232210C4897
:10127C0000F0E6FF03461A46074B1A606422002171
:10128C00084800F0DDFF03461A46044B1A6000BF05
:10129C0080BD00BFAC000020C4000020F000002086
:1012AC0009150008D517000880B500AF012240F2DF
:1012BC00FF71054801F0F5FD01224FF4FE41034892
:1012CC0001F0EFFD00BF80BD000C014000080140A3
:1012DC0080B586B000AF78603F4A07F10C0307CAAF
:1012EC0003C31A8007F10C027B6813441B785BB2B2
:1012FC00DB43DBB2DB09DBB21A460121374801F0D4
:10130C00D0FD07F10C027B6813441B7803F04003FB
:10131C00002B0CBF01230023DBB21A4602212F48FD
:10132C0001F0BFFD07F10C027B6813441B7803F03E
:10133C002003002B0CBF01230023DBB21A4604212F
:10134C00264801F0AEFD07F10C027B6813441B78B4
:10135C0003F01003002B0CBF01230023DBB21A4651
:10136C0008211E4801F09DFD07F10C027B68134417
:10137C001B7803F00803002B0CBF01230023DBB206
:10138C001A461021154801F08CFD07F10C027B6800
:10139C0013441B7803F00403002B0CBF0123002320
:1013AC00DBB21A4620210D4801F07BFD07F10C023F
:1013BC007B6813441B7803F00203002B0CBF012342
:1013CC000023DBB21A464021044801F06AFD00BF3D
:1013DC001837BD4680BD00BFF03E0008000C014030
:1013EC0080B586B000AF7860424A07F10C0307CA9B
:1013FC0003C31A8007F10C027B6813441B785BB2A1
:10140C00DB43DBB2DB09DBB21A464FF480713A489E
:10141C0001F047FD07F10C027B6813441B7803F0C5
:10142C004003002B0CBF01230023DBB21A464FF400
:10143C000071314801F035FD07F10C027B68134453
:10144C001B7803F02003002B0CBF01230023DBB21D
:10145C001A464FF48061284801F023FD07F10C0275
:10146C007B6813441B7803F01003002B0CBF012383
:10147C000023DBB21A464FF400611F4801F011FD46
:10148C0007F10C027B6813441B7803F00803002B54
:10149C000CBF01230023DBB21A464FF480511648CF
:1014AC0001F0FFFC07F10C027B6813441B7803F07E
:1014BC000403002B0CBF01230023DBB21A464FF4AC
:1014CC0000510D4801F0EDFC07F10C027B68134450
:1014DC001B7803F00203002B0CBF01230023DBB2AB
:1014EC001A464FF48041044801F0DBFC00BF18376A
:1014FC00BD4680BDF03E00080008014080B500AF3D
:10150C00A94B1B685A1CA94B1B68134401335A0086
:10151C00A74B1B689A4202DCA54B00221A60A44B15
:10152C001B680133A24A1360A04B1B685A1CA04BCA
:10153C001B689A4238DB01224FF480719D4801F000
:10154C00B0FC01224FF480619A4801F0AAFC002201
:10155C008021984801F0A5FC00224FF400719548B9
:10156C0001F09FFC944B1B680133944A82FB0312DD
:10157C009210DB17D31A1846FFF7AAFE8B4B1A688A
:10158C008B4B1B689A4203DA0020FFF729FF0BE014
:10159C008B4B1B680133894A82FB03129210DB17B9
:1015AC00D31A1846FFF71CFF804B1B685A1C804B44
:1015BC001B689A4249DA7D4B1A687B4B1B681344B3
:1015CC009A1C7B4B1B689A423FDB01224FF48071C3
:1015DC00784801F066FC01224FF48061754801F0F7
:1015EC0060FC00228021734801F05BFC00224FF468
:1015FC000071704801F055FC6C4B1A686A4B1B6803
:10160C0013445A1C6A4B1B689A4206DA0020FFF7F7
:10161C005FFE0020FFF7E4FE17E0674B1B68013309
:10162C00664A82FB03129210DB17D31A1846FFF797
:10163C004FFE644B1B680133604A82FB031292100D
:10164C00DB17D31A1846FFF7CBFE584B1A68564BCC
:10165C001B6813449A1C564B1B689A4248DA534B2E
:10166C001B685A00504B1B681344DA1C504B1B6808
:10167C009A423DDB01224FF480714E4801F011FC7F
:10168C0001224FF480614B4801F00BFC00228021B9
:10169C00484801F006FC00224FF40071454801F067
:1016AC0000FC454B1B680133444A82FB0312921029
:1016BC00DB17D31A1846FFF793FE3C4B1B685A00F6
:1016CC00394B1B6813449A1C394B1B689A4203DA3A
:1016DC000020FFF7FDFD0BE0394B1B680133374A47
:1016EC0082FB03129210DB17D31A1846FFF7F0FD9A
:1016FC002E4B1B685A002C4B1B681344DA1C2C4BCA
:10170C001B689A424DDA284B1B685A1C274B1B68E6
:10171C00134401335A00264B1B689A4241DB0122C9
:10172C004FF48071234801F0BCFB01224FF480611F
:10173C00204801F0B6FB002280211E4801F0B1FBCD
:10174C0000224FF400711B4801F0ABFB164B1B68D9
:10175C005A1C164B1B68134401335A00144B1B685C
:10176C009A4206DC0020FFF73BFE0020FFF7B0FD9D
:10177C0017E0114B1B680133104A82FB03129210C5
:10178C00DB17D31A1846FFF72BFE0E4B1B680133E1
:10179C000A4A82FB03129210DB17D31A1846FFF782
:1017AC0097FD00BF80BD00BF5800002054000020F2
:1017BC00B0000020000C01405C00002067666666EB
:1017CC00600000206400002080B500AF984B1B68BF
:1017DC005A1C984B1B68134401335A00964B1B68D8
:1017EC009A4202DC944B00221A60934B1B68013323
:1017FC00914A13608F4B1B685A1C8F4B1B689A4283
:10180C0050DB00224FF480718C4801F04AFB00221F
:10181C004FF48061894801F044FB01228021874804
:10182C0001F03FFB01224FF40071844801F039FBB9
:10183C00834B1A68834B83FB02139910D317C91A75
:10184C000B469B000B445B00D11A0846FFF740FD8A
:10185C007D4B1A687B4B83FB02139910D317C91A63
:10186C000B469B000B445B00D11A0846FFF7B8FDF2
:10187C00704B1A68704B1B689A4209DA6D4B1B68E7
:10188C00714A13606E4B1B68013B6D4A136009E093
:10189C006D4B1B68013B6C4A1360694B1B68013B29
:1018AC00674A1360634B1B685A1C634B1B689A4254
:1018BC005DDA604B1A685E4B1B6813449A1C5E4BD6
:1018CC001B689A4253DB00224FF480715B4801F095
:1018DC00E8FA00224FF48061584801F0E2FA012244
:1018EC008021564801F0DDFA01224FF40071534873
:1018FC0001F0D7FA524B1A68524B83FB0213991022
:10190C00D317C91A0B469B000B445B00D11A08462F
:10191C00FFF7DEFC4D4B1A684A4B83FB0213991000
:10192C00D317C91A0B469B000B445B00D11A08460F
:10193C00FFF756FD3F4B1A683D4B1B6813445A1C6E
:10194C003D4B1B689A4208DA414B1B683C4A1360BA
:10195C00374B1B683D4A136009E0394B1B68013B50
:10196C00374A1360394B1B68013B384A1360314BC3
:10197C001A682F4B1B6813449A1C2F4B1B689A42F6
:10198C0072DA2C4B1B685A00294B1B681344DA1C67
:10199C00294B1B689A4267DB00224FF48071274861
:1019AC0001F07FFA00224FF48061244801F079FAAB
:1019BC0001228021214801F074FA01224FF40071B8
:1019CC001E4801F06EFA1E4B1A681E4B83FB021365
:1019DC009910D317C91A0B469B000B445B00D11A04
:1019EC000846FFF7FDFC184B1A68164B83FB0213D5
:1019FC009910D317C91A0B469B000B445B00D11AE4
:101A0C000846FFF765FC0B4B1B685A00084B1B681C
:101A1C0013449A1C084B1B689A421BDA054B1B6833
:101A2C00094A1360064B1B68013B054A13601BE017
:101A3C005800002054000020B4000020000C01408D
:101A4C005C00002067666666600000206400002071
:101A5C00500000203C4B1B68013B3B4A13603B4B46
:101A6C001B68013B394A1360394B1B685A00394BD0
:101A7C001B681344DA1C384B1B689A4261DA354BED
:101A8C001B685A1C324B1B68134401335A00324BEF
:101A9C001B689A4255DB00224FF480712F4801F0ED
:101AAC0000FA00224FF480612C4801F0FAF901226F
:101ABC0080212A4801F0F5F901224FF400712748E2
:101ACC0001F0EFF9214B1A68254B83FB0213991097
:101ADC00D317C91A0B469B000B445B00D11A08465E
:101AEC00FFF77EFC1F4B1A681D4B83FB02139910EA
:101AFC00D317C91A0B469B000B445B00D11A08463E
:101B0C00FFF7E6FB134B1B685A1C114B1B68134465
:101B1C0001335A00104B1B689A4208DC124B1B68AD
:101B2C000A4A13600B4B1B680E4A136009E0074B03
:101B3C001B68013B054A13600A4B1B68013B094AB1
:101B4C00136000BF80BD00BF600000205C0000205F
:101B5C005400002058000020B4000020000C01406C
:101B6C0067666666640000205000002080B500AFF8
:101B7C0001224FF48071124801F093F901224FF4C5
:101B8C0080610F4801F08DF9002280210C4801F092
:101B9C0088F900224FF40071094801F082F9094BD1
:101BAC001B68094A82FB03129210DB17D31A1846E2
:101BBC00FFF78EFB0020FFF713FC00BF80BD00BFBA
:101BCC00000C0140140100206766666680B500AF0A
:101BDC0001224FF48071124801F063F901224FF495
:101BEC0080610F4801F05DF9002280210C4801F062
:101BFC0058F900224FF40071094801F052F9094BD1
:101C0C001B68094A82FB03129210DB17D31A184681
:101C1C00FFF75EFB0020FFF7E3FB00BF80BD00BFBA
:101C2C00000C0140040100206766666680B500AFB9
:101C3C0001224FF48071124801F033F901224FF464
:101C4C0080610F4801F02DF9002280210C4801F031
:101C5C0028F900224FF40071094801F022F9094BD0
:101C6C001B68094A82FB03129210DB17D31A184621
:101C7C00FFF72EFB0020FFF7B3FB00BF80BD00BFBA
:101C8C00000C0140B80000206766666680B500AFA6
:101C9C0000224FF480711A4801F003F900224FF42E
:101CAC008061174801F0FDF801228021144801F0F1
:101CBC00F8F801224FF40071114801F0F2F8114BC1
:101CCC001B68002B06D1104B1B68104A13600D4B80
:101CDC0001221A600D4B1A680D4B83FB02139910ED
:101CEC00D317C91A0B469B000B445B00D11A08464C
:101CFC00FFF7EEFA0220FFF773FB00BF80BD00BFB9
:101D0C00000C0140100100205000002014010020A4
:101D1C006766666680B500AF00224FF480711B4881
:101D2C0001F0BFF800224FF48061184801F0B9F8B7
:101D3C0001228021154801F0B4F801224FF4007102
:101D4C00124801F0AEF8124B1B68002B1BDD104B38
:101D5C001B68622B17DC0E4B1B6801330C4A13609B
:101D6C000B4B1A680B4B83FB02139910D317C91A30
:101D7C000B469B000B445B00D11A0846FFF7A8FAF0
:101D8C000220FFF72DFB00BF80BD00BF000C0140FF
:101D9C00140100206766666680B500AF00224FF420
:101DAC0080711A4801F07DF800224FF480611748C9
:101DBC0001F077F801228021144801F072F8012219
:101DCC004FF40071114801F06CF8114B1B68002B9B
:101DDC0006D1104B1B68104A13600D4B01221A6080
:101DEC000D4B1A680D4B83FB02139910D317C91AAC
:101DFC000B469B000B445B00D11A0846FFF768FAB0
:101E0C000320FFF7EDFA00BF80BD00BF000C0140BE
:101E1C00080100205400002004010020676666665B
:101E2C0080B500AF00224FF480711B4801F039F8E7
:101E3C0000224FF48061184801F033F80122802110
:101E4C00154801F02EF801224FF40071124801F0F0
:101E5C0028F8124B1B68002B1BDD104B1B68622BE8
:101E6C0017DC0E4B1B6801330C4A13600B4B1A68C2
:101E7C000B4B83FB02139910D317C91A0B469B000B
:101E8C000B445B00D11A0846FFF722FA0320FFF738
:101E9C00A7FA00BF80BD00BF000C01400401002068
:101EAC006766666680B500AF00224FF480711A48F1
:101EBC0000F0F7FF00224FF48061174800F0F1FFAB
:101ECC0001228021144800F0ECFF01224FF4007134
:101EDC00114800F0E6FF114B1B68002B06D1104B8C
:101EEC001B68104A13600D4B01221A600D4B1A68C7
:101EFC000D4B83FB02139910D317C91A0B469B0089
:101F0C000B445B00D11A0846FFF7E2F90420FFF7F7
:101F1C0067FA00BF80BD00BF000C0140BC00002070
:101F2C0058000020B80000206766666680B500AFD8
:101F3C0000224FF480711B4800F0B3FF00224FF4D5
:101F4C008061184800F0ADFF01228021154800F097
:101F5C00A8FF01224FF40071124800F0A2FF124BAF
:101F6C001B68002B1BDD104B1B68622B17DC0E4B08
:101F7C001B6801330C4A13600B4B1A680B4B83FB29
:101F8C0002139910D317C91A0B469B000B445B0024
:101F9C00D11A0846FFF79CF90420FFF721FA00BF7D
:101FAC0080BD00BF000C0140B8000020676666666B
:101FBC0080B500AF1221024800F08BFF00BF80BD3E
:101FCC000008014080B500AF4421024800F081FFB9
:101FDC0000BF80BD0008014080B500AF88210248D9
:101FEC0000F077FF00BF80BD0008014080B500AF56
:101FFC0000F056FC00F018F800F09EF800F050F8D5
:10200C00074801F0ABFB074B01221A60FEF74CF9B5
:10201C00FEF7B0FCFEF7E6FD00F050FAF6E700BF65
:10202C0020010020AC00002080B590B000AF07F17B
:10203C00180328220021184601F040FF3B1D002206
:10204C001A605A609A60DA601A610223BB6101233C
:10205C00BB621023FB6200237B6307F11803184655
:10206C0000F050FF0346002B01D000F0E3F80F23E3
:10207C007B600023BB600023FB6000233B610023DB
:10208C007B613B1D0021184601F0BCF90346002B77
:10209C0001D000F0CFF800BF4037BD4680BD000036
:1020AC0080B586B000AF07F1080300221A605A60B1
:1020BC009A60DA603B4600221A605A601D4B4FF062
:1020CC0080421A601B4B41F63F725A60194B00223A
:1020DC009A60184B0922DA60164B00221A61154BD4
:1020EC0000229A61134801F0E9FA0346002B01D053
:1020FC0000F0A0F84FF48053BB6007F108031946B9
:10210C000C4801F067FC0346002B01D000F092F85C
:10211C0000233B6000237B603B461946054801F0D9
:10212C003FFE0346002B01D000F084F800BF1837A7
:10213C00BD4680BD2001002080B588B000AF07F1FE
:10214C00100300221A605A609A60DA602F4B9B6968
:10215C002E4A43F0100393612C4B9B6903F0100340
:10216C00FB60FB68294B9B69284A43F0040393618D
:10217C00264B9B6903F00403BB60BB68234B9B6934
:10218C00224A43F008039361204B9B6903F0080338
:10219C007B607B68002247F6FE711D4800F081FED3
:1021AC00002240F2FF711B4800F07BFE4FF46043AD
:1021BC003B6100237B610123BB6107F110031946CE
:1021CC00154800F0DDFC47F6FE733B6101237B6193
:1021DC000023BB610223FB6107F1100319460C4875
:1021EC0000F0CEFC40F2FF733B6101237B610023C6
:1021FC00BB610223FB6107F110031946054800F08F
:10220C00BFFC00BF2037BD4680BD00BF00100240A0
:10221C0000080140000C01400010014080B582B064
:10222C0000AF786000F0C6F8FDF7B4FF00BF0837C8
:10223C00BD4680BD80B400AF72B600BFFEE70000A3
:10224C0080B487B000AFF860B9607A602E4B1B7811
:10225C00591C2E4B83FB01231A11CB17D21A134690
:10226C009B001344DB00CA1A294B1B789A4201D1FC
:10227C00282343E0244B1B781946264A0B469B0027
:10228C000B449B001344FA681A601F4B1B781946C9
:10229C00204A0B469B000B449B0013440433BA6842
:1022AC001A60194B1B7819461A4A0B469B000B44B3
:1022BC009B00134408337A681A60134B1B78194639
:1022CC00144A0B469B000B449B0013440C33002216
:1022DC001A700D4B1B78FB750B4B1B785A1C0B4B58
:1022EC0083FB02131911D317C91A0B469B000B441D
:1022FC00DB00D11ACAB2044B1A70FB7D18461C378E
:10230C00BD4680BC704700BFC10000206766666692
:10231C00C00000206801002080B483B000AF0346E9
:10232C00FB71FA79204913469B0013449B000B4424
:10233C0000221A60FA791C4913469B0013449B0037
:10234C000B44043300221A60FA79174913469B0098
:10235C0013449B000B44083300221A60FA7912498B
:10236C0013469B0013449B000B440C3300221A7041
:10237C000E4B1B78FA799A4210D10C4B1B785A1CD5
:10238C000B4B83FB02131911D317C91A0B469B0075
:10239C000B44DB00D11ACAB2044B1A7000BF0C37C5
:1023AC00BD4680BC704700BF68010020C000002003
:1023BC006766666680B483B000AF3C4B1B78FB71DC
:1023CC0069E0FA793A4913469B0013449B000B448D
:1023DC001B68002B50D0FA79354913469B001344E7
:1023EC009B000B4404331B68002B32D1FA79304923
:1023FC0013469B0013449B000B440C331B78FA7957
:10240C000133D8B22A4913469B0013449B000B445A
:10241C000C3302461A70FA79254913469B00134473
:10242C009B000B4408331B68002B25D0F979FA79F3
:10243C001F480B469B000B449B0003440833196850
:10244C001B4813469B0013449B0003440433196040
:10245C0012E0FA79164913469B0013449B000B4477
:10246C0004331B68FA79591E114813469B00134418
:10247C009B00034404331960FB795A1C0D4B83FBFE
:10248C0002131911D317C91A0B469B000B44DB001E
:10249C00D11A0B46FB71084B1B78FA799A4290D1F2
:1024AC0000BF00BF0C37BD4680BC7047C000002089
:1024BC006801002067666666C100002080B582B0A6
:1024CC0000AF2A4B1B78FB7146E0FA79284913467A
:1024DC009B0013449B000B440C331B78002B2CD01B
:1024EC00FA79234913469B0013449B000B441B6849
:1024FC009847FA791E4913469B0013449B000B44E2
:10250C000C331B78FA79013BD8B2194913469B005E
:10251C0013449B000B440C3302461A70FA7914498D
:10252C0013469B0013449B000B4408331B68002B81
:10253C0003D1FB791846FFF7EFFEFB795A1C0D4BC4
:10254C0083FB02131911D317C91A0B469B000B44BA
:10255C00DB00D11A0B46FB71074B1B78FA799A42B8
:10256C00B3D100BF00BF0837BD4680BDC0000020FE
:10257C006801002067666666C100002080B485B0E3
:10258C0000AF154B9B69144A43F001039361124B46
:10259C009B6903F00103BB60BB680F4BDB690E4A00
:1025AC0043F08053D3610C4BDB6903F080537B60A9
:1025BC007B680A4B5B68FB60FB6823F0E063FB60A5
:1025CC00FB6843F08063FB60044AFB68536000BF08
:1025DC001437BD4680BC704700100240000001401B
:1025EC0080B584B000AF78607B681B68B3F1804F16
:1025FC0013D10C4BDB690B4A43F00103D361094B3C
:10260C00DB6903F00103FB60FB68002200211C2046
:10261C0000F07FFA1C2000F098FA00BF1037BD467E
:10262C0080BD00BF0010024080B400AFFEE780B454
:10263C0000AFFEE780B400AFFEE780B400AFFEE76A
:10264C0080B400AFFEE780B400AF00BFBD4680BCD5
:10265C00704780B400AF00BFBD4680BC704780B4EB
:10266C0000AF00BFBD4680BC704780B500AF00F026
:10267C005DF900BF80BD000080B500AF024801F0DD
:10268C00B9F800BF80BD00BF2001002080B400AFAE
:10269C0000BFBD4680BC704780B500AF0122FE2153
:1026AC00024800F0FEFB00BF80BD00BF00080140E7
:1026BC0080B500AF00221221074800F0F2FB012286
:1026CC004421054800F0EDFB01228821024800F06E
:1026DC00E8FB00BF80BD00BF0008014080B500AF23
:1026EC0000224421074800F0DCFB0122122105489E
:1026FC0000F0D7FB01228821024800F0D2FB00BF7A
:10270C0080BD00BF0008014080B500AF00228821C9
:10271C00074800F0C6FB01224421054800F0C1FB2C
:10272C0001221221024800F0BCFB00BF80BD00BF9B
:10273C000008014080B500AF012210210E4800F0C6
:10274C00B0FB012204210C4800F0ABFB0122082154
:10275C00094800F0A6FB01228021074800F0A1FBEC
:10276C0000220221044800F09CFB00224021024878
:10277C0000F097FB00BF80BD0008014080B500AFA2
:10278C00012210210E4800F08CFB012204210C4880
:10279C0000F087FB01220821094800F082FB01228E
:1027AC004021074800F07DFB00220221044800F084
:1027BC0078FB00228021024800F073FB00BF80BD33
:1027CC000008014080B500AF012202210E4800F044
:1027DC0068FB012280210C4800F063FB01220821D8
:1027EC00094800F05EFB01224021074800F059FB2C
:1027FC0000220421044800F054FB0022102102485E
:10280C0000F04FFB00BF80BD0008014080B500AF59
:10281C00012202210E4800F044FB012280210C48C9
:10282C0000F03FFB01220421094800F03AFB012291
:10283C004021074800F035FB00220821044800F035
:10284C0030FB00221021024800F02BFB00BF80BDA2
:10285C0000080140FFF71AFF0B480C490C4A0023F3
:10286C0002E0D458C4500433C4188C42F9D3094A3A
:10287C00094C002301E013600432A242FBD301F0A7
:10288C00F9FAFFF7B3FB704700000020740000203A
:10289C00283F0008740000208C040020FEE7000094
:1028AC0080B500AF084B1B68074A43F01003136058
:1028BC00032000F023F90F2000F008F8FFF75EFE6C
:1028CC000023184680BD00BF0020024080B582B0B6
:1028DC0000AF7860124B1A68124B1B7819464FF4F4
:1028EC007A73B3FBF1F3B2FBF3F3184600F03BF948
:1028FC000346002B01D001230EE07B680F2B0AD876
:10290C00002279684FF0FF3000F003F9064A7B682B
:10291C001360002300E0012318460837BD4680BD34
:10292C0068000020700000206C00002080B400AF14
:10293C00054B1B781A46054B1B681344034A13605E
:10294C0000BFBD4680BC704770000020880400208A
:10295C0080B400AF024B1B681846BD4680BC704764
:10296C008804002080B485B000AF78607B6803F0E9
:10297C000703FB600C4BDB68BB60BA684FF6FF03C8
:10298C001340BB60FB681A02BB68134343F0BF6380
:10299C0043F40033BB60044ABB68D36000BF1437F8
:1029AC00BD4680BC704700BF00ED00E080B400AFB6
:1029BC00044BDB681B0A03F007031846BD4680BCBA
:1029CC00704700BF00ED00E080B483B000AF034659
:1029DC00FB7197F90730002B0BDBFB7903F01F021F
:1029EC00064997F907305B09012000FA02F241F819
:1029FC00232000BF0C37BD4680BC704700E100E0CF
:102A0C0080B483B000AF03463960FB7197F907308F
:102A1C00002B0ADB3B68DAB20C4997F9073012013C
:102A2C00D2B20B4483F800230AE03B68DAB20849BF
:102A3C00FB7903F00F03043B1201D2B20B441A765C
:102A4C0000BF0C37BD4680BC704700BF00E100E002
:102A5C0000ED00E080B489B000AFF860B9607A6036
:102A6C00FB6803F00703FB61FB69C3F10703042B4D
:102A7C0028BF0423BB61FB690433062B02D9FB6915
:102A8C00033B00E000237B614FF0FF32BB6902FA8D
:102A9C0003F3DA43BB681A407B699A404FF0FF316D
:102AAC007B6901FA03F3D9437B680B401343184647
:102ABC002437BD4680BC704780B582B000AF7860CB
:102ACC007B68013BB3F1807F01D301230FE00A4AFD
:102ADC007B68013B53600F214FF0FF30FFF790FFF5
:102AEC00054B00229A60044B07221A6000231846FB
:102AFC000837BD4680BD00BF10E000E080B582B055
:102B0C0000AF78607868FFF72DFF00BF0837BD462F
:102B1C0080BD80B586B000AF0346B9607A60FB73A8
:102B2C0000237B61FFF742FF78617A68B9687869A6
:102B3C00FFF790FF024697F90F3011461846FFF742
:102B4C005FFF00BF1837BD4680BD80B582B000AFB7
:102B5C000346FB7197F907301846FFF735FF00BFA6
:102B6C000837BD4680BD80B582B000AF786078680C
:102B7C00FFF7A2FF034618460837BD4680BD00008C
:102B8C0080B48BB000AF7860396000237B62002387
:102B9C003B6248E101227B6A02FA03F3FB613B686A
:102BAC001B68FA691340BB61BA69FB699A4240F031
:102BBC0037813B685B68A34A93425ED0A14A93423B
:102BCC0075D8A14A934258D09F4A93426FD89F4AD6
:102BDC00934252D09D4A934269D89D4A93424CD01D
:102BEC009B4A934263D89B4A934246D0994A93425C
:102BFC005DD8122B2AD8122B59D801A252F823F0E7
:102C0C00872C0008612C0008732C0008B52C0008D8
:102C1C00BB2C0008BB2C0008BB2C0008BB2C0008EC
:102C2C00BB2C0008BB2C0008BB2C0008BB2C0008DC
:102C3C00BB2C0008BB2C0008BB2C0008BB2C0008CC
:102C4C00BB2C0008692C00087D2C0008824A93429A
:102C5C0013D02CE03B68DB683B6229E03B68DB6807
:102C6C0004333B6224E03B68DB6808333B621FE0C3
:102C7C003B68DB680C333B621AE03B689B68002BBB
:102C8C0002D104233B6213E03B689B68012B05D106
:102C9C0008233B627B68FA691A6109E008233B62EE
:102CAC007B68FA695A6103E000233B6200E000BFD5
:102CBC00BB69FF2B01D87B6801E07B6804337B6127
:102CCC00BB69FF2B02D87B6A9B0002E07B6A083B46
:102CDC009B003B617B691A680F213B6901FA03F386
:102CEC00DB431A40396A3B6901FA03F31A437B69E7
:102CFC001A603B685B6803F08053002B00F09080F7
:102D0C00564B9B69554A43F001039361534B9B69A6
:102D1C0003F00103BB60BB68514A7B6A9B0802331A
:102D2C0052F82330FB607B6A03F003039B000F22F5
:102D3C0002FA03F3DB43FA681340FB607B68494AF1
:102D4C0093420DD07B68484A934207D07B68474A30
:102D5C00934201D1022304E0032302E0012300E0AB
:102D6C0000237A6A02F0030292009340FA6813433C
:102D7C00FB603B497B6A9B080233FA6841F82320CD
:102D8C003B685B6803F48013002B06D0384B9A68C1
:102D9C003749BB6913438B6006E0354B9A68BB69B6
:102DAC00DB43334913408B603B685B6803F40013CF
:102DBC00002B06D02E4BDA682D49BB691343CB6030
:102DCC0006E02B4BDA68BB69DB4329491340CB6027
:102DDC003B685B6803F40033002B06D0244B5A6825
:102DEC002349BB6913434B6006E0214B5A68BB690E
:102DFC00DB431F4913404B603B685B6803F4803333
:102E0C00002B06D01A4B1A681949BB6913430B6087
:102E1C0006E0174B1A68BB69DB43154913400B607E
:102E2C007B6A01337B623B681A687B6A22FA03F384
:102E3C00002B7FF4AFAE00BF00BF2C37BD4680BC6B
:102E4C00704700BF0000321000003110000022104B
:102E5C0000002110000012100000111000100240A0
:102E6C000000014000080140000C0140001001402E
:102E7C000004014080B485B000AF78600B467B80C5
:102E8C007B689A687B881340002B02D00123FB736C
:102E9C0001E00023FB73FB7B18461437BD4680BC56
:102EAC00704780B483B000AF78600B467B801346CC
:102EBC007B707B78002B03D07A887B681A6103E0E7
:102ECC007B881A047B681A6100BF0C37BD4680BC36
:102EDC00704780B485B000AF78600B467B807B6810
:102EEC00DB68FB607A88FB6813401A04FB68D943E3
:102EFC007B880B401A437B681A6100BF1437BD46B0
:102F0C0080BC704780B586B000AF78607B68002BC2
:102F1C0001D101236CE27B681B6803F00103002BD9
:102F2C0000F08780924B5B6803F00C03042B0CD0F1
:102F3C008F4B5B6803F00C03082B12D18C4B5B6836
:102F4C0003F48033B3F5803F0BD1894B1B6803F43A
:102F5C000033002B6CD07B685B68002B68D101239D
:102F6C0046E27B685B68B3F5803F06D1804B1B68FB
:102F7C007F4A43F4803313602EE07B685B68002B40
:102F8C000CD17B4B1B687A4A23F480331360784B4B
:102F9C001B68774A23F4802313601DE07B685B6811
:102FAC00B3F5A02F0CD1724B1B68714A43F48023EC
:102FBC0013606F4B1B686E4A43F4803313600BE055
:102FCC006B4B1B686A4A23F480331360684B1B6895
:102FDC00674A23F4802313607B685B68002B13D053
:102FEC00FFF7B6FC386108E0FFF7B2FC02463B691C
:102FFC00D31A642B01D90323FAE15D4B1B6803F44C
:10300C000033002BF0D014E0FFF7A2FC386108E08D
:10301C00FFF79EFC02463B69D31A642B01D90323AC
:10302C00E6E1534B1B6803F40033002BF0D100E0B6
:10303C0000BF7B681B6803F00203002B63D04C4B72
:10304C005B6803F00C03002B0BD0494B5B6803F05F
:10305C000C03082B1CD1464B5B6803F48033002B0C
:10306C0016D1434B1B6803F00203002B05D07B6881
:10307C001B69012B01D00123BAE13D4B1B6823F0E6
:10308C00F8027B685B69DB00394913430B603AE05B
:10309C007B681B69002B20D0364B01221A60FFF78E
:1030AC0057FC386108E0FFF753FC02463B69D31A22
:1030BC00022B01D903239BE12D4B1B6803F0020368
:1030CC00002BF0D02A4B1B6823F0F8027B685B695D
:1030DC00DB00274913430B6015E0264B00221A60D6
:1030EC00FFF736FC386108E0FFF732FC02463B691B
:1030FC00D31A022B01D903237AE11D4B1B6803F071
:10310C000203002BF0D17B681B6803F00803002B33
:10311C003AD07B689B69002B19D0174B01221A609F
:10312C00FFF716FC386108E0FFF712FC02463B691A
:10313C00D31A022B01D903235AE10D4B5B6A03F01E
:10314C000203002BF0D0012000F09AFA1CE00A4B8D
:10315C0000221A60FFF7FCFB38610FE0FFF7F8FB69
:10316C0002463B69D31A022B08D9032340E100BF66
:10317C000010024000004242800442429E4B5B6AB7
:10318C0003F00203002BE9D17B681B6803F00403F6
:10319C00002B00F0A6800023FB75974BDB6903F036
:1031AC008053002B0DD1944BDB69934A43F0805331
:1031BC00D361914BDB6903F08053BB60BB68012387
:1031CC00FB758E4B1B6803F48073002B18D18B4B53
:1031DC001B688A4A43F480731360FFF7B9FB3861AC
:1031EC0008E0FFF7B5FB02463B69D31A642B01D903
:1031FC000323FDE0814B1B6803F48073002BF0D09C
:10320C007B68DB68012B06D17B4B1B6A7A4A43F047
:10321C00010313622DE07B68DB68002B0CD1764B2D
:10322C001B6A754A23F001031362734B1B6A724AC3
:10323C0023F0040313621CE07B68DB68052B0CD1C4
:10324C006D4B1B6A6C4A43F0040313626A4B1B6A96
:10325C00694A43F0010313620BE0674B1B6A664A31
:10326C0023F001031362644B1B6A634A23F00403CB
:10327C0013627B68DB68002B15D0FFF769FB3861A4
:10328C000AE0FFF765FB02463B69D31A41F288322C
:10329C00934201D90323ABE0574B1B6A03F00203A3
:1032AC00002BEED014E0FFF753FB38610AE0FFF778
:1032BC004FFB02463B69D31A41F28832934201D943
:1032CC00032395E04C4B1B6A03F00203002BEED159
:1032DC00FB7D012B05D1484BDB69474A23F080531A
:1032EC00D3617B68DB69002B00F08180424B5B680B
:1032FC0003F00C03082B61D07B68DB69022B46D1F1
:10330C003F4B00221A60FFF723FB386108E0FFF700
:10331C001FFB02463B69D31A022B01D9032367E03A
:10332C00354B1B6803F00073002BF0D17B681B6AD4
:10333C00B3F5803F08D1304B5B6823F400327B68D7
:10334C009B682D4913434B602B4B5B6823F4741221
:10335C007B68196A7B685B6A0B43274913434B6094
:10336C00274B01221A60FFF7F3FA386108E0FFF7E8
:10337C00EFFA02463B69D31A022B01D9032337E03B
:10338C001D4B1B6803F00073002BF0D02FE01C4B7F
:10339C0000221A60FFF7DCFA386108E0FFF7D8FA70
:1033AC0002463B69D31A022B01D9032320E0124BAE
:1033BC001B6803F00073002BF0D118E07B68DB690D
:1033CC00012B01D1012313E00B4B5B68FB60FB6805
:1033DC0003F480327B681B6A9A4206D1FB6803F4C3
:1033EC0070127B685B6A9A4201D0012300E00023D3
:1033FC0018461837BD4680BD0010024000700040D2
:10340C006000424280B584B000AF786039607B6860
:10341C00002B01D10123D0E06A4B1B6803F007039A
:10342C003A689A4210D9674B1B6823F0070265492A
:10343C003B6813430B60634B1B6803F007033A684C
:10344C009A4201D00123B8E07B681B6803F00203A9
:10345C00002B20D07B681B6803F00403002B05D0E5
:10346C00594B5B68584A43F4E06353607B681B68B4
:10347C0003F00803002B05D0534B5B68524A43F40E
:10348C0060535360504B5B6823F0F0027B689B6881
:10349C004D4913434B607B681B6803F00103002B01
:1034AC0040D07B685B68012B07D1474B1B6803F44A
:1034BC000033002B15D101237FE07B685B68022B66
:1034CC0007D1414B1B6803F00073002B09D101237A
:1034DC0073E03D4B1B6803F00203002B01D1012369
:1034EC006BE0394B5B6823F003027B685B68364901
:1034FC0013434B60FFF72CFAF8600AE0FFF728FA49
:10350C000246FB68D31A41F28832934201D9032355
:10351C0053E02D4B5B6803F00C027B685B689B00EF
:10352C009A42EBD1274B1B6803F007033A689A4287
:10353C0010D2244B1B6823F0070222493B6813432B
:10354C000B60204B1B6803F007033A689A4201D0CA
:10355C00012332E07B681B6803F00403002B08D0C6
:10356C00194B5B6823F4E0627B68DB6816491343F4
:10357C004B607B681B6803F00803002B09D0124BCF
:10358C005B6823F460527B681B69DB000E491343B4
:10359C004B6000F021F802460B4B5B681B0903F0F3
:1035AC000F030A49CB5C22FA03F3094A1360094B57
:1035BC001B681846FFF78AF9002318461037BD46DA
:1035CC0080BD00BF0020024000100240FC3E0008FD
:1035DC00680000206C00002080B487B000AF00238E
:1035EC00FB600023BB6000237B6100237B60002316
:1035FC003B611E4B5B68FB60FB6803F00C03042B08
:10360C0002D0082B03D027E0194B3B6127E0FB6865
:10361C009B0C03F00F03174AD35C7B60FB6803F42D
:10362C008033002B10D0114B5B685B0C03F0010353
:10363C00114AD35CBB607B680D4A02FB03F2BB688A
:10364C00B2FBF3F37B6104E07B680C4A02FB03F3EF
:10365C007B617B693B6102E0054B3B6100BF3B69D1
:10366C0018461C37BD4680BC704700BF0010024096
:10367C0000127A000C3F00081C3F000800093D00B6
:10368C0080B485B000AF78600A4B1B680A4AA2FB75
:10369C0003235B0A7A6802FB03F3FB6000BFFB6841
:1036AC005A1EFA60002BF9D100BF00BF1437BD467B
:1036BC0080BC704768000020D34D621080B582B08A
:1036CC0000AF78607B68002B01D1012341E07B685F
:1036DC0093F83D30DBB2002B06D17B68002283F8D7
:1036EC003C207868FEF77CFF7B68022283F83D2043
:1036FC007B681A687B6804331946104600F056FA4A
:10370C007B68012283F846207B68012283F83E20E7
:10371C007B68012283F83F207B68012283F84020DC
:10372C007B68012283F841207B68012283F84220C8
:10373C007B68012283F843207B68012283F84420B4
:10374C007B68012283F845207B68012283F83D20A9
:10375C00002318460837BD4680BD000080B485B0F4
:10376C0000AF78607B6893F83D30DBB2012B01D061
:10377C00012335E07B68022283F83D207B681B68BF
:10378C00DA687B681B6842F00102DA607B681B68B0
:10379C00164A934209D07B681B68B3F1804F04D062
:1037AC007B681B68124A934211D17B681B689B682B
:1037BC0003F00703FB60FB68062B10D07B681B68CB
:1037CC001A687B681B6842F001021A6007E07B688C
:1037DC001B681A687B681B6842F001021A600023A0
:1037EC0018461437BD4680BC704700BF002C014002
:1037FC000004004080B584B000AF78607B681B6823
:10380C00DB68FB607B681B681B69BB60BB6803F0F3
:10381C000203002B20D0FB6803F00203002B1BD00B
:10382C007B681B686FF002021A617B6801221A77B1
:10383C007B681B689B6903F00303002B03D078683B
:10384C0000F098F905E0786800F08BF9786800F0E2
:10385C009AF97B6800221A77BB6803F00403002BEB
:10386C0020D0FB6803F00403002B1BD07B681B6883
:10387C006FF004021A617B6802221A777B681B685E
:10388C009B6903F44073002B03D0786800F072F945
:10389C0005E0786800F065F9786800F074F97B68E9
:1038AC0000221A77BB6803F00803002B20D0FB68BA
:1038BC0003F00803002B1BD07B681B686FF0080219
:1038CC001A617B6804221A777B681B68DB6903F03A
:1038DC000303002B03D0786800F04CF905E07868FE
:1038EC0000F03FF9786800F04EF97B6800221A77F7
:1038FC00BB6803F01003002B20D0FB6803F010030F
:10390C00002B1BD07B681B686FF010021A617B6860
:10391C0008221A777B681B68DB6903F44073002B61
:10392C0003D0786800F026F905E0786800F019F902
:10393C00786800F028F97B6800221A77BB6803F0DE
:10394C000103002B0CD0FB6803F00103002B07D004
:10395C007B681B686FF001021A617868FEF75EFCE9
:10396C00BB6803F08003002B0CD0FB6803F08003D2
:10397C00002B07D07B681B686FF080021A61786897
:10398C0000F06FFABB6803F04003002B0CD0FB680F
:10399C0003F04003002B07D07B681B686FF04002DC
:1039AC001A61786800F0F8F8BB6803F02003002B6C
:1039BC000CD0FB6803F02003002B07D07B681B683E
:1039CC006FF020021A61786800F042FA00BF1037DD
:1039DC00BD4680BD80B584B000AF786039600023EF
:1039EC00FB737B6893F83C30012B01D10223B4E0CC
:1039FC007B68012283F83C207B68022283F83D20FF
:103A0C007B681B689B68BB60BB6823F07703BB605B
:103A1C00BB6823F47F43BB607B681B68BA689A6001
:103A2C003B681B68B3F5005F3ED0B3F5005F00F256
:103A3C008780B3F5805F00F08680B3F5805F7FD818
:103A4C00702B1AD0702B7BD8602B50D0602B77D872
:103A5C00502B3CD0502B73D8402B58D0402B6FD8C8
:103A6C00302B64D0302B6BD8202B60D0202B67D818
:103A7C00002B5CD0102B5AD062E07B6818683B6836
:103A8C0099683B685A683B68DB6800F06AF97B68A8
:103A9C001B689B68BB60BB6843F07703BB607B68AB
:103AAC001B68BA689A604FE07B6818683B68996835
:103ABC003B685A683B68DB6800F053F97B681B680D
:103ACC009A687B681B6842F480429A603CE07B6891
:103ADC0018683B6859683B68DB681A4600F0CAF8FE
:103AEC007B681B685021184600F021F92CE07B689C
:103AFC0018683B6859683B68DB681A4600F0E8F8C0
:103B0C007B681B686021184600F011F91CE07B688B
:103B1C0018683B6859683B68DB681A4600F0AAF8DD
:103B2C007B681B684021184600F001F90CE07B68AB
:103B3C001A683B681B681946104600F0F8F803E059
:103B4C000123FB7300E000BF7B68012283F83D205A
:103B5C007B68002283F83C20FB7B18461037BD465F
:103B6C0080BD80B483B000AF786000BF0C37BD4619
:103B7C0080BC704780B483B000AF786000BF0C3756
:103B8C00BD4680BC704780B483B000AF786000BF86
:103B9C000C37BD4680BC704780B483B000AF7860F2
:103BAC0000BF0C37BD4680BC7047000080B485B0A8
:103BBC0000AF786039607B681B68FB607B682B4AC0
:103BCC00934207D07B68B3F1804F03D07B68284ABF
:103BDC00934208D1FB6823F07003FB603B685B6881
:103BEC00FA681343FB607B68204A934207D07B68DA
:103BFC00B3F1804F03D07B681D4A934208D1FB6818
:103C0C0023F44073FB603B68DB68FA681343FB608A
:103C1C00FB6823F080023B685B691343FB607B68A5
:103C2C00FA681A603B689A687B68DA623B681A68C3
:103C3C007B689A627B680D4A934203D13B681A6990
:103C4C007B681A637B6801225A617B681B6903F0ED
:103C5C000103002B05D07B681B6923F001027B68F4
:103C6C001A6100BF1437BD4680BC7047002C014060
:103C7C000004004080B487B000AFF860B9607A608F
:103C8C00FB681B6A7B61FB681B6A23F00102FB6803
:103C9C001A62FB689B693B613B6923F0F0033B6153
:103CAC007B681B013A6913433B617B6923F00A0370
:103CBC007B617A69BB6813437B61FB683A699A61E3
:103CCC00FB687A691A6200BF1C37BD4680BC70471E
:103CDC0080B487B000AFF860B9607A60FB681B6A8B
:103CEC007B61FB681B6A23F01002FB681A62FB689D
:103CFC009B693B613B6923F470433B617B681B030D
:103D0C003A6913433B617B6923F0A0037B61BB6879
:103D1C001B017A6913437B61FB683A699A61FB6802
:103D2C007A691A6200BF1C37BD4680BC704780B4EC
:103D3C0085B000AF786039607B689B68FB60FB687E
:103D4C0023F07003FB603A68FB68134343F00703EE
:103D5C00FB607B68FA689A6000BF1437BD4680BC74
:103D6C00704780B487B000AFF860B9607A603B6090
:103D7C00FB689B687B617B6923F47F437B613B68B9
:103D8C001A027B681A43BB6813437A6913437B613D
:103D9C00FB687A699A6000BF1C37BD4680BC7047CF
:103DAC0080B485B000AF786039607B6893F83C30A4
:103DBC00012B01D1022341E07B68012283F83C20D6
:103DCC007B68022283F83D207B681B685B68FB6084
:103DDC007B681B689B68BB60FB6823F07003FB600F
:103DEC003B681B68FA681343FB607B681B68FA68C6
:103DFC005A607B681B68144A934209D07B681B6825
:103E0C00B3F1804F04D07B681B68104A93420CD1ED
:103E1C00BB6823F08003BB603B685B68BA681343E4
:103E2C00BB607B681B68BA689A607B68012283F868
:103E3C003D207B68002283F83C2000231846143771
:103E4C00BD4680BC704700BF002C01400004004000
:103E5C0080B483B000AF786000BF0C37BD4680BC27
:103E6C00704780B483B000AF786000BF0C37BD469C
:103E7C0080BC704770B500260C4D0D4C641BA41013
:103E8C00A64209D100F022F800260A4D0A4C641B08
:103E9C00A410A64205D170BD55F8043B98470136D5
:103EAC00EEE755F8043B98470136F2E7203F00084F
:103EBC00203F0008203F0008243F0008034602442E
:103ECC00934200D1704703F8011BF9E7F8B500BF26
:103EDC00F8BC08BC9E467047F8B500BFF8BC08BCDF
:043EEC009E46704737
:103EF000FC60DAF266B6BEE0FEF6000000000000EC
:103F0000000000000102030406070809020304057B
:103F1000060708090A0B0C0D0E0F10100102000015
:043F20003101000863
:043F24000D01000883
:103F28000100000001000000010000000100000085
:103F38000100000001000000010000000100000075
:103F48000100000001000000010000000100000065
:103F5800C8000000C8000000C800000000100140B0
:103F680000100140001001400020004000800000C7
:103F7800050000000300000001000000050000002B
:103F8800030000000100000000127A001000000089
:043F98000100000024
:040000050800286166
:00000001FF
