:020000040800F2
:100000000028002029270008FD24000803250008F7
:10001000092500080F25000815250008000000002C
:100020000000000000000000000000001B25000888
:100030002725000800000000332500083F250008A0
:100040007127000871270008712700087127000830
:100050007127000871270008712700087127000820
:100060007127000871270008712700087127000810
:100070007127000871270008712700087127000800
:1000800071270008712700087127000871270008F0
:1000900071270008712700087127000871270008E0
:1000A00071270008712700087127000871270008D0
:1000B0004D25000871270008000000007127000886
:1000C00071270008000000000000000071270008F0
:1000D00000000000712700087127000800000000E0
:1000E0007127000871270008712700080000000030
:1000F0000000000000000000000000000000000000
:0C01000000000000000000005FF808F1A3
:10010C0010B5054C237833B9044B13B10448AFF345
:10011C0000800123237010BD74000020000000003B
:10012C00A03D000808B5034B1BB103490348AFF3CE
:10013C00008008BD0000000078000020A03D0008F1
:10014C0080B483B000AF7860094A7B6852F82330E2
:10015C00012B06D1064A7B68002142F823100123AB
:10016C0000E0002318460C37BD4680BC704700BF2A
:10017C009000002080B483B000AF7860044A7B68A4
:10018C00012142F8231000BF0C37BD4680BC7047DC
:10019C009000002080B582B000AF00237B606DE042
:1001AC003A4A7B6852F8232039497B6841F823206E
:1001BC00384A7B6852F8232034497B6841F8232065
:1001CC00354A7B6852F8232034497B6831F8133068
:1001DC001946104602F0B2FD034619462D4A7B68BB
:1001EC0042F823102A4A7B6852F8232027497B685F
:1001FC0051F823309A423ED1244A7B6852F823208E
:10020C0024497B6851F823309A4234D1244A7B68C4
:10021C0052F823201F497B6851F823309A4216D09C
:10022C001C4A7B6852F823201D497B6841F8232027
:10023C00184A7B6852F82330002B1CD17868FFF7E2
:10024C0099FF184A7B68C82142F8231013E0154A1D
:10025C007B6852F823305A1E12497B6841F82320E0
:10026C00104A7B6852F82330002B04D10C4A7B686F
:10027C00012142F823107B6801337B607B68022BE1
:10028C008EDD00BF00BF0837BD4680BD0C000020CE
:10029C0000000020180000203C0000204800002036
:1002AC00240000203000002080B500AF654B1B6897
:1002BC00013B042B00F21D8301A252F823F000BF76
:1002CC00E10200082B060008C3060008D10700084D
:1002DC006908000802F044F900F0ACFF5A4B1A68A8
:1002EC005A4B1B6813445A1C594B1B689A4240F0DA
:1002FC00D380574B1B68574A1360534B1B68564AA5
:10030C001360524B1B68554A1360554B00221A6000
:10031C00544B00221A604B4B02221A606422322189
:10032C00514801F053FF03461A46504B1A606422A1
:10033C0000214F4801F04AFF03461A464D4B1A6004
:10034C00454B1B68642202FB03F31946414B1A68A8
:10035C00414B1B681A44414B1B6813440333642202
:10036C0002FB03F31A46444801F030FF03461A46D9
:10037C00424B1A60384B1A68384B1B6813440133D4
:10038C00642202FB03F31946324B1A68324B1B688A
:10039C001A44324B1B6813440333642202FB03F3ED
:1003AC001A46374801F012FF03461A46354B1A60BD
:1003BC00294B1A68294B1B6813445A1C264B1B6883
:1003CC0013440133642202FB03F31946214B1A68D0
:1003DC00214B1B681A44214B1B68134403336422C2
:1003EC0002FB03F31A46284801F0F0FE03461A46B6
:1003FC00264B1A60184B1A68184B1B6813445A1C6E
:10040C00154B1B6813445A1C144B1B6813440133C3
:10041C00642202FB03F319460E4B1A680E4B1B6841
:10042C001A440E4B1B6813440333642202FB03F380
:10043C001A46174801F0CAFE03461A46154B1A60B5
:10044C0060E200BFAC0000206000002064000020CF
:10045C005C000020500000205400002058000020B8
:10046C00B4000020B000002095140008C00000204B
:10047C0061170008EC00002089110008F40000202E
:10048C002D110008D4000020D1100008C400002059
:10049C00E5110008DC000020AD4B1B68AD4A136071
:1004AC00AD4B1B68AD4A1360AD4B1B68AD4A136076
:1004BC00AD4B00221A60AD4B00221A60AC4B0222ED
:1004CC001A6064223221AB4801F080FE03461A46C2
:1004DC00A94B1A6064220021A84801F077FE03465C
:1004EC001A46A74B1A609C4B1B68642202FB03F351
:1004FC001946994B1A689A4B1B681A44964B1B6801
:10050C0013445A1C964B1B681A44934B1B68134498
:10051C00642202FB03F31A469A4801F057FE034685
:10052C001A46994B1A608C4B1A688D4B1B681344F6
:10053C000133642202FB03F31946874B1A68884B7C
:10054C001B681A44844B1B6813445A1C844B1B684D
:10055C001A44814B1B681344642202FB03F31A46B2
:10056C008A4801F033FE03461A46894B1A607A4BCF
:10057C001A687B4B1B6813445A1C774B1B6813443B
:10058C000133642202FB03F31946734B1A68744B54
:10059C001B681A44704B1B6813445A1C704B1B6825
:1005AC001A446D4B1B681344642202FB03F31A4676
:1005BC00784801F00BFE03461A46774B1A60664BDF
:1005CC001A68674B1B6813445A1C634B1B68134413
:1005DC005A1C634B1B6813440133642202FB03F364
:1005EC0019465D4B1A685E4B1B6813445A1C5A4BD8
:1005FC001B6813445A1C5A4B1B6813445A1C564B09
:10060C001B681344023B642202FB03F31A46634843
:10061C0001F0DCFD03461A46614B1A6072E101F0F1
:10062C00EDFF0020FFF78CFD0346012B40F06381AA
:10063C004F4B0C221A60504B1B68184601F0D0FE31
:10064C004F4B1B68184601F0CBFE4F4B1B681846EE
:10065C0001F0C6FE4E4B1B68184601F0C1FE4E4B16
:10066C001B68184601F0BCFE4D4B1B68184601F088
:10067C00B7FE642232214B4801F0A8FD03461A460E
:10068C00494B1A6064220021484801F09FFD034643
:10069C001A46474B1A6032223221464801F096FD29
:1006AC0003461A46444B1A60444B00221A60444BD2
:1006BC0000221A601FE101F0C5FF0020FFF740FD8A
:1006CC000346012B40F01981294B0C221A602A4B4E
:1006DC001B68184601F084FE294B1B68184601F074
:1006EC007FFE294B1B68184601F07AFE284B1B68CD
:1006FC00184601F075FE284B1B68184601F070FE79
:10070C00274B1B68184601F06BFE642232212548EA
:10071C0001F05CFD03461A46234B1A60642200214B
:10072C00224801F053FD03461A46214B1A6032222F
:10073C003221204801F04AFD03461A461E4B1A602E
:10074C001E4B00221A601E4B00221A60D5E000BF1F
:10075C00500000205C0000205400002060000020AD
:10076C005800002064000020B4000020B0000020DD
:10077C00AC00002095140008C00000206117000890
:10078C00EC00002089110008F40000202D11000855
:10079C00D4000020D1100008C4000020E51100088E
:1007AC00DC000020051B0008D0000020251C0008E0
:1007BC00E8000020491F0008E40000209C000020F5
:1007CC000C01002001F062FF0020FFF7B9FC03468A
:1007DC00012B40F094804C4B0C221A604B4B1B6845
:1007EC00184601F0FDFD4A4B1B68184601F0F8FD58
:1007FC00484B1B68184601F0F3FD474B1B68184625
:10080C0001F0EEFD454B1B68184601F0E9FD444B29
:10081C001B68184601F0E4FD64223221414801F0C6
:10082C00D5FC03461A46404B1A60642200213F480F
:10083C0001F0CCFC03461A463D4B1A6032223221A1
:10084C003C4801F0C3FC03461A463B4B1A603B4B39
:10085C0000221A603A4B00221A6050E001F03AFF75
:10086C000020FFF76DFC0346012B4AD1264B0C22CE
:10087C001A60264B1B68184601F0B2FD244B1B680E
:10088C00184601F0ADFD234B1B68184601F0A8FD7E
:10089C00214B1B68184601F0A3FD204B1B68184622
:1008AC0001F09EFD1E4B1B68184601F099FD642259
:1008BC0032211C4801F08AFC03461A461A4B1A6076
:1008CC0064220021194801F081FC03461A46184B9A
:1008DC001A6032223221174801F078FC03461A467E
:1008EC00154B1A60154B00221A60154B00221A602A
:1008FC0007E000BF06E000BF04E000BF02E000BF5D
:10090C0000E000BF00BF80BDAC000020C000002094
:10091C00EC000020F4000020D4000020C4000020D3
:10092C00DC000020051B0008D0000020251C00085E
:10093C00E8000020491F0008E40000209C00002073
:10094C000C01002080B500AF7A4B1B680E2B00F019
:10095C00B5800E2B00F3E6800C2B02D00D2B58D05B
:10096C00E0E0754B1B68002B06D101F005FE01F091
:10097C0053F9714B01221A600020FFF7E1FB03468B
:10098C00012B36D16B4B0D221A606B4B00221A6077
:10099C006A4B1B686A4A13606A4B1B68184601F065
:1009AC001FFD694B1B68184601F01AFD674B1B684D
:1009BC00184601F015FD64223221654801F006FC51
:1009CC0003461A46634B1A6064220021624801F008
:1009DC00FDFB03461A46614B1A60322232216048F5
:1009EC0001F0F4FB03461A465E4B1A605E4B002284
:1009FC001A600120FFF7A4FB0346012B05D14D4BD8
:100A0C000F221A60594B00221A600220FFF798FB44
:100A1C008DE0494B1B68002B06D101F0C3FD01F0A2
:100A2C0081F9454B01221A600020FFF789FB034630
:100A3C00012B36D13F4B0E221A603F4B00221A601D
:100A4C004B4B00221A604B4B1B684B4A1360414BBB
:100A5C001B68184601F0C4FC404B1B68184601F09B
:100A6C00BFFC404B1B68184601F0BAFC64223221D3
:100A7C00424801F0ABFB03461A46414B1A60642214
:100A8C000021404801F0A2FB03461A463E4B1A6077
:100A9C00322232213D4801F099FB03461A463C4B69
:100AAC001A600120FFF74CFB0346012B3CD1214B74
:100ABC0012221A60374B00221A6035E01E4B1B685D
:100ACC00002B06D101F084FD01F0B2F91A4B012282
:100ADC001A600020FFF734FB0346012B15D12E4B77
:100AEC001B682E4A1360134B01221A60244B1B689F
:100AFC00184601F075FC244B1B68184601F070FC7D
:100B0C00234B1B68184601F06BFC0120FFF718FB08
:100B1C000346012B0AD1074B14221A60204B0022EA
:100B2C001A6003E000BF02E000BF00E000BF00BF9E
:100B3C0080BD00BFAC0000209C00002050000020B5
:100B4C005C000020D0000020E8000020E400002021
:100B5C00651B0008CC000020311D0008C8000020D7
:100B6C005D1F0008D800002004010020A000002018
:100B7C00BC0000205400002060000020C51B0008B1
:100B8C00F00000203D1E0008F8000020711F000836
:100B9C00E0000020A4000020580000206400002089
:100BAC00A800002080B500AFA24B1B680F3B062BA2
:100BBC0000F2508201A252F823F000BFE50B0008AE
:100BCC00B90C0008611000086D0D0008AD0E00088E
:100BDC00610F0008F10F0008974B1B68002B08D120
:100BEC0001F0CAFC01F05CF8934B1B680133924A8C
:100BFC0013600020FFF7A4FA0346012B36D18D4B6E
:100C0C000D221A608D4B00221A608D4B00221A6047
:100C1C008C4B1B688C4A13608C4B1B68184601F07C
:100C2C00DFFB8B4B1B68184601F0DAFB894B1B680A
:100C3C00184601F0D5FB64223221874801F0C6FA30
:100C4C0003461A46854B1A6064220021844801F041
:100C5C00BDFA03461A46834B1A603222322182486F
:100C6C0001F0B4FA03461A46804B1A600120FFF7D4
:100C7C0067FA0346012B06D16F4B1B6801336E4A92
:100C8C00136001F00DF80220FFF75AFA0346012B0E
:100C9C0040F0E281674B10221A60674B00221A6009
:100CAC006C4B1B68184601F09BFBD5E101F064FC12
:100CBC006F4B1B68644A13605F4B1B68002B04D19D
:100CCC0000F0AAFF5C4B01221A600020FFF738FAF3
:100CDC000346012B2DD1574B0D221A60574B002286
:100CEC001A60574B00221A60584B1B68184601F0CB
:100CFC0077FB574B1B68184601F072FB64223221BC
:100D0C00554801F063FA03461A46544B1A606422A4
:100D1C000021534801F05AFA03461A46514B1A6007
:100D2C0032223221504801F051FA03461A464F4BF9
:100D3C001A600120FFF704FA0346012B40F08E8164
:100D4C003C4B0F221A603C4B00221A60322232219B
:100D5C00484801F03BFA03461A463E4B1A607DE1C7
:100D6C00454B1B68002B08D101F01CFC01F01EF850
:100D7C00414B1B680133404A13600020FFF7E0F938
:100D8C000346012B36D12B4B0E221A602B4B002223
:100D9C001A603A4B00221A60394B1B68394A1360AF
:100DAC002E4B1B68184601F01BFB2E4B1B6818467C
:100DBC0001F016FB2D4B1B68184601F011FB642249
:100DCC003221314801F002FA03461A462F4B1A60C1
:100DDC00642200212E4801F0F9F903461A462D4BE6
:100DEC001A60322232212C4801F0F0F903461A46DF
:100DFC002A4B1A600120FFF7A3F90346012B06D1F9
:100E0C001D4B1B6801331C4A136000F0CFFF0220FE
:100E1C00FFF796F90346012B40F02281054B132274
:100E2C001A60154B00221A60104B1B68184601F013
:100E3C00D7FA15E1AC000020A00000209C00002097
:100E4C0004010020500000205C000020D000002095
:100E5C00E8000020E4000020651B0008CC00002006
:100E6C00311D0008C80000205D1F0008D8000020BC
:100E7C0010010020491F0008A4000020BC00002025
:100E8C005400002060000020C51B0008F00000206A
:100E9C003D1E0008F8000020711F0008E000002033
:100EAC0001F080FB734B1B68734A1360734B1B6818
:100EBC00002B04D100F036FF704B01221A60002089
:100ECC00FFF73EF90346012B2DD16D4B0E221A6014
:100EDC006C4B00221A606C4B00221A606B4B1B6827
:100EEC00184601F07DFA6A4B1B68184601F078FA37
:100EFC0064223221674801F069F903461A46664BB1
:100F0C001A6064220021654801F060F903461A4614
:100F1C00634B1A6032223221624801F057F90346C2
:100F2C001A46614B1A600120FFF70AF90346012BA0
:100F3C0040F09880524B12221A60504B00221A60DB
:100F4C0032223221594801F041F903461A46584BD6
:100F5C001A6087E0574B1B68002B08D101F038FB57
:100F6C0000F0AAFF534B1B680133524A1360002058
:100F7C00FFF7E6F80346012B15D1414B01221A600D
:100F8C004D4B1B684D4A1360434B1B68184601F0D0
:100F9C0027FA434B1B68184601F022FA424B1B6898
:100FAC00184601F01DFA0120FFF7CAF80346012B81
:100FBC0006D1404B1B6801333E4A136000F07CFFA6
:100FCC000220FFF7BDF80346012B4DD12C4B152207
:100FDC001A60384B00221A60334B1B68184601F01C
:100FEC00FFF941E001F0F4FA354B1B68334A13600A
:100FFC00304B1B68002B04D100F01AFF2D4B012243
:10100C001A600020FFF79CF80346012B0CD11C4BF7
:10101C0001221A60204B1B68184601F0E1F9204BA5
:10102C001B68184601F0DCF90120FFF789F803462C
:10103C00012B1BD1124B14221A601E4B00221A607A
:10104C0032223221134801F0C1F803461A46164BDE
:10105C001A600BE000BF0AE000BF08E000BF06E02A
:10106C0000BF04E000BF02E000BF00E000BF00BF13
:10107C0080BD00BF0001002060000020A400002003
:10108C00AC0000209C000020BC000020CC00002004
:10109C00C8000020C51B0008F00000203D1E000801
:1010AC00F8000020711F0008E0000020651B0008FC
:1010BC00D8000020A8000020580000206400002068
:1010CC00B800002080B500AF104B05221A60104B01
:1010DC001B68184601F084F90E4B1B68184601F08A
:1010EC007FF9642232210C4801F070F803461A464D
:1010FC00074B1A6064220021084801F067F8034688
:10110C001A46044B1A6000BF80BD00BFAC00002023
:10111C00C0000020EC0000209514000861170008A6
:10112C0080B500AF104B04221A60104B1B68184698
:10113C0001F056F90E4B1B68184601F051F9642268
:10114C0032210C4801F042F803461A46074B1A604C
:10115C0064220021084801F039F803461A46044B72
:10116C001A6000BF80BD00BFAC000020C000002092
:10117C00EC000020951400086117000880B500AF42
:10118C00104B03221A60104B1B68184601F028F90B
:10119C000E4B1B68184601F023F9642232210C48CF
:1011AC0001F014F803461A46074B1A60642200211A
:1011BC00084801F00BF803461A46044B1A6000BFAE
:1011CC0080BD00BFAC000020C0000020EC0000205F
:1011DC00951400086117000880B500AF104B02226F
:1011EC001A60104B1B68184601F0FAF80E4B1B687E
:1011FC00184601F0F5F8642232210C4800F0E6FFA5
:10120C0003461A46074B1A6064220021084800F076
:10121C00DDFF03461A46044B1A6000BF80BD00BFB9
:10122C00AC000020C0000020EC0000209514000849
:10123C006117000880B500AF012240F2FF7105482C
:10124C0001F093FD01224FF4FE41034801F08DFDA6
:10125C0000BF80BD000C01400008014080B586B085
:10126C0000AF78603F4A07F10C0307CA03C31A802A
:10127C0007F10C027B6813441B785BB2DB43DBB2D7
:10128C00DB09DBB21A460121374801F06EFD07F18C
:10129C000C027B6813441B7803F04003002B0CBF3B
:1012AC0001230023DBB21A4602212F4801F05DFD19
:1012BC0007F10C027B6813441B7803F02003002B0E
:1012CC000CBF01230023DBB21A460421264801F08F
:1012DC004CFD07F10C027B6813441B7803F01003E0
:1012EC00002B0CBF01230023DBB21A4608211E4839
:1012FC0001F03BFD07F10C027B6813441B7803F0F3
:10130C000803002B0CBF01230023DBB21A4610216B
:10131C00154801F02AFD07F10C027B6813441B7879
:10132C0003F00403002B0CBF01230023DBB21A468D
:10133C0020210D4801F019FD07F10C027B681344C4
:10134C001B7803F00203002B0CBF01230023DBB23C
:10135C001A464021044801F008FD00BF1837BD466D
:10136C0080BD00BFB83D0008000C014080B586B0C0
:10137C0000AF7860424A07F10C0307CA03C31A8016
:10138C0007F10C027B6813441B785BB2DB43DBB2C6
:10139C00DB09DBB21A464FF480713A4801F0E5FCE8
:1013AC0007F10C027B6813441B7803F04003002BFD
:1013BC000CBF01230023DBB21A464FF400713148F5
:1013CC0001F0D3FC07F10C027B6813441B7803F08B
:1013DC002003002B0CBF01230023DBB21A464FF471
:1013EC008061284801F0C1FC07F10C027B681344B2
:1013FC001B7803F01003002B0CBF01230023DBB27E
:10140C001A464FF400611F4801F0AFFC07F10C02C3
:10141C007B6813441B7803F00803002B0CBF0123DB
:10142C000023DBB21A464FF48051164801F09DFCA4
:10143C0007F10C027B6813441B7803F00403002BA8
:10144C000CBF01230023DBB21A464FF400510D48A8
:10145C0001F08BFC07F10C027B6813441B7803F042
:10146C000203002B0CBF01230023DBB21A464FF4FE
:10147C008041044801F079FC00BF1837BD4680BD9F
:10148C00B83D00080008014080B500AFA94B1B68AF
:10149C005A1CA94B1B68134401335A00A74B1B68F9
:1014AC009A4202DCA54B00221A60A44B1B68013344
:1014BC00A24A1360A04B1B685A1CA04B1B689A4293
:1014CC0038DB01224FF480719D4801F04EFC012263
:1014DC004FF480619A4801F048FC00228021984822
:1014EC0001F043FC00224FF40071954801F03DFCE3
:1014FC00944B1B680133944A82FB03129210DB1746
:10150C00D31A1846FFF7AAFE8B4B1A688B4B1B6835
:10151C009A4203DA0020FFF729FF0BE08B4B1B6884
:10152C000133894A82FB03129210DB17D31A184637
:10153C00FFF71CFF804B1B685A1C804B1B689A42A0
:10154C0049DA7D4B1A687B4B1B6813449A1C7B4B06
:10155C001B689A423FDB01224FF48071784801F0FE
:10156C0004FC01224FF48061754801F0FEFB00225F
:10157C008021734801F0F9FB00224FF40071704890
:10158C0001F0F3FB6C4B1A686A4B1B6813445A1C32
:10159C006A4B1B689A4206DA0020FFF75FFE0020B8
:1015AC00FFF7E4FE17E0674B1B680133664A82FBCA
:1015BC0003129210DB17D31A1846FFF74FFE644B39
:1015CC001B680133604A82FB03129210DB17D31A9B
:1015DC001846FFF7CBFE584B1A68564B1B68134442
:1015EC009A1C564B1B689A4248DA534B1B685A009C
:1015FC00504B1B681344DA1C504B1B689A423DDB62
:10160C0001224FF480714E4801F0AFFB01224FF4E0
:10161C0080614B4801F0A9FB00228021484801F071
:10162C00A4FB00224FF40071454801F09EFB454B92
:10163C001B680133444A82FB03129210DB17D31A46
:10164C001846FFF793FE3C4B1B685A00394B1B683E
:10165C0013449A1C394B1B689A4203DA0020FFF79B
:10166C00FDFD0BE0394B1B680133374A82FB03123B
:10167C009210DB17D31A1846FFF7F0FD2E4B1B68A0
:10168C005A002C4B1B681344DA1C2C4B1B689A42D7
:10169C004DDA284B1B685A1C274B1B68134401332B
:1016AC005A00264B1B689A4241DB01224FF4807191
:1016BC00234801F05AFB01224FF48061204801F0CD
:1016CC0054FB002280211E4801F04FFB00224FF4F6
:1016DC0000711B4801F049FB164B1B685A1C164B3A
:1016EC001B68134401335A00144B1B689A4206DCE6
:1016FC000020FFF73BFE0020FFF7B0FD17E0114B79
:10170C001B680133104A82FB03129210DB17D31AA9
:10171C001846FFF72BFE0E4B1B6801330A4A82FB5F
:10172C0003129210DB17D31A1846FFF797FD00BF70
:10173C0080BD00BF5800002054000020B0000020E5
:10174C00000C01405C0000206766666660000020AB
:10175C006400002080B500AF984B1B685A1C984B56
:10176C001B68134401335A00964B1B689A4202DCE7
:10177C00944B00221A60934B1B680133914A1360FF
:10178C008F4B1B685A1C8F4B1B689A4250DB0022F4
:10179C004FF480718C4801F0E8FA00224FF480611C
:1017AC00894801F0E2FA01228021874801F0DDFA34
:1017BC0001224FF40071844801F0D7FA834B1A6868
:1017CC00834B83FB02139910D317C91A0B469B004A
:1017DC000B445B00D11A0846FFF740FD7D4B1A689D
:1017EC007B4B83FB02139910D317C91A0B469B0032
:1017FC000B445B00D11A0846FFF7B8FD704B1A6812
:10180C00704B1B689A4209DA6D4B1B68714A136066
:10181C006E4B1B68013B6D4A136009E06D4B1B68F6
:10182C00013B6C4A1360694B1B68013B674A1360B0
:10183C00634B1B685A1C634B1B689A425DDA604B06
:10184C001A685E4B1B6813449A1C5E4B1B689A42C9
:10185C0053DB00224FF480715B4801F086FA0022C2
:10186C004FF48061584801F080FA012280215648DB
:10187C0001F07BFA01224FF40071534801F075FA24
:10188C00524B1A68524B83FB02139910D317C91A87
:10189C000B469B000B445B00D11A0846FFF7DEFC9D
:1018AC004D4B1A684A4B83FB02139910D317C91A74
:1018BC000B469B000B445B00D11A0846FFF756FD04
:1018CC003F4B1A683D4B1B6813445A1C3D4B1B681D
:1018DC009A4208DA414B1B683C4A1360374B1B6831
:1018EC003D4A136009E0394B1B68013B374A1360D2
:1018FC00394B1B68013B384A1360314B1A682F4B2C
:10190C001B6813449A1C2F4B1B689A4272DA2C4B9F
:10191C001B685A00294B1B681344DA1C294B1B68A3
:10192C009A4267DB00224FF48071274801F01DFAC0
:10193C0000224FF48061244801F017FA0122802123
:10194C00214801F012FA01224FF400711E4801F0F7
:10195C000CFA1E4B1A681E4B83FB02139910D317FB
:10196C00C91A0B469B000B445B00D11A0846FFF7C3
:10197C00FDFC184B1A68164B83FB02139910D317F6
:10198C00C91A0B469B000B445B00D11A0846FFF7A3
:10199C0065FC0B4B1B685A00084B1B6813449A1CC4
:1019AC00084B1B689A421BDA054B1B68094A1360EB
:1019BC00064B1B68013B054A13601BE058000020D6
:1019CC0054000020B4000020000C01405C000020FA
:1019DC0067666666600000206400002050000020EE
:1019EC003C4B1B68013B3B4A13603B4B1B68013B68
:1019FC00394A1360394B1B685A00394B1B68134426
:101A0C00DA1C384B1B689A4261DA354B1B685A1C3E
:101A1C00324B1B68134401335A00324B1B689A42F9
:101A2C0055DB00224FF480712F4801F09EF9002203
:101A3C004FF480612C4801F098F9012280212A484A
:101A4C0001F093F901224FF40071274801F08DF950
:101A5C00214B1A68254B83FB02139910D317C91A13
:101A6C000B469B000B445B00D11A0846FFF77EFC2B
:101A7C001F4B1A681D4B83FB02139910D317C91AFD
:101A8C000B469B000B445B00D11A0846FFF7E6FBA4
:101A9C00134B1B685A1C114B1B68134401335A001F
:101AAC00104B1B689A4208DC124B1B680A4A1360E5
:101ABC000B4B1B680E4A136009E0074B1B68013B7C
:101ACC00054A13600A4B1B68013B094A136000BFAF
:101ADC0080BD00BF600000205C000020540000208E
:101AEC0058000020B4000020000C014067666666B8
:101AFC00640000205000002080B500AF01224FF49C
:101B0C008071124801F031F901224FF480610F48C5
:101B1C0001F02BF9002280210C4801F026F900225B
:101B2C004FF40071094801F020F9094B1B68094A70
:101B3C0082FB03129210DB17D31A1846FFF78EFBA9
:101B4C000020FFF713FC00BF80BD00BF000C01405C
:101B5C00100100206766666680B500AF01224FF465
:101B6C008071124801F001F901224FF480610F4895
:101B7C0001F0FBF8002280210C4801F0F6F800225D
:101B8C004FF40071094801F0F0F8094B1B68094A41
:101B9C0082FB03129210DB17D31A1846FFF75EFB79
:101BAC000020FFF7E3FB00BF80BD00BF000C01402D
:101BBC00000100206766666680B500AF01224FF415
:101BCC008071124801F0D1F801224FF480610F4866
:101BDC0001F0CBF8002280210C4801F0C6F800225D
:101BEC004FF40071094801F0C0F8094B1B68094A11
:101BFC0082FB03129210DB17D31A1846FFF72EFB49
:101C0C000020FFF7B3FB00BF80BD00BF000C0140FC
:101C1C00B80000206766666680B500AF00224FF4FE
:101C2C0080711A4801F0A1F800224FF48061174826
:101C3C0001F09BF801228021144801F096F8012252
:101C4C004FF40071114801F090F8114B1B68002BF8
:101C5C0006D1104B1B68104A13600D4B01221A6001
:101C6C000D4B1A680D4B83FB02139910D317C91A2D
:101C7C000B469B000B445B00D11A0846FFF7EEFAAB
:101C8C000220FFF773FB00BF80BD00BF000C0140BA
:101C9C000C010020500000201001002067666666D1
:101CAC0080B500AF00224FF480711B4801F05DF845
:101CBC0000224FF48061184801F057F8012280216E
:101CCC00154801F052F801224FF40071124801F04E
:101CDC004CF8124B1B68002B1BDD104B1B68622B46
:101CEC0017DC0E4B1B6801330C4A13600B4B1A6844
:101CFC000B4B83FB02139910D317C91A0B469B008D
:101D0C000B445B00D11A0846FFF7A8FA0220FFF734
:101D1C002DFB00BF80BD00BF000C01401001002056
:101D2C006766666680B500AF00224FF480711A4872
:101D3C0001F01BF800224FF48061174801F015F8F0
:101D4C0001228021144801F010F801224FF4007197
:101D5C00114801F00AF8114B1B68002B06D1104BEF
:101D6C001B68104A13600D4B01221A600D4B1A6848
:101D7C000D4B83FB02139910D317C91A0B469B000A
:101D8C000B445B00D11A0846FFF768FA0320FFF7F3
:101D9C00EDFA00BF80BD00BF000C01400401002023
:101DAC0054000020000100206766666680B500AF15
:101DBC0000224FF480711B4800F0D7FF00224FF433
:101DCC008061184800F0D1FF01228021154800F0F5
:101DDC00CCFF01224FF40071124800F0C6FF124BE9
:101DEC001B68002B1BDD104B1B68622B17DC0E4B8A
:101DFC001B6801330C4A13600B4B1A680B4B83FBAB
:101E0C0002139910D317C91A0B469B000B445B00A5
:101E1C00D11A0846FFF722FA0320FFF7A7FA00BFF2
:101E2C0080BD00BF000C01400001002067666666A3
:101E3C0080B500AF00224FF480711A4800F095FF76
:101E4C0000224FF48061174800F08FFF012280219F
:101E5C00144800F08AFF01224FF40071114800F081
:101E6C0084FF114B1B68002B06D1104B1B68104ACA
:101E7C0013600D4B01221A600D4B1A680D4B83FB3E
:101E8C0002139910D317C91A0B469B000B445B0025
:101E9C00D11A0846FFF7E2F90420FFF767FA00BFF2
:101EAC0080BD00BF000C0140BC0000205800002089
:101EBC00B80000206766666680B500AF00224FF45C
:101ECC0080711B4800F051FF00224FF480611848CC
:101EDC0000F04BFF01228021154800F046FF012243
:101EEC004FF40071124800F040FF124B1B68002B9E
:101EFC001BDD104B1B68622B17DC0E4B1B68013370
:101F0C000C4A13600B4B1A680B4B83FB0213991092
:101F1C00D317C91A0B469B000B445B00D11A084619
:101F2C00FFF79CF90420FFF721FA00BF80BD00BF2A
:101F3C00000C0140B80000206766666680B500AFF3
:101F4C001221024800F029FF00BF80BD00080140AB
:101F5C0080B500AF4421024800F01FFF00BF80BDD8
:101F6C000008014080B500AF8821024800F015FF41
:101F7C0000BF80BD0008014080B500AF00F0F4FB4D
:101F8C0000F018F800F09EF800F050F8074801F047
:101F9C0049FB074B01221A60FEF786F9FEF7D2FCCB
:101FAC00FEF700FE00F0D0F9F6E700BF1C010020A0
:101FBC00AC00002080B590B000AF07F118032822C8
:101FCC000021184601F0DEFE3B1D00221A605A600B
:101FDC009A60DA601A610223BB610123BB62102391
:101FEC00FB6200237B6307F11803184600F0EEFE3A
:101FFC000346002B01D000F0E3F80F237B60002395
:10200C00BB600023FB6000233B6100237B613B1D15
:10201C000021184601F05AF90346002B01D000F0BC
:10202C00CFF800BF4037BD4680BD000080B586B0FC
:10203C0000AF07F1080300221A605A609A60DA6058
:10204C003B4600221A605A601D4B4FF080421A60CA
:10205C001B4B41F63F725A60194B00229A60184B89
:10206C000922DA60164B00221A61154B00229A6184
:10207C00134801F087FA0346002B01D000F0A0F8BA
:10208C004FF48053BB6007F1080319460C4801F06C
:10209C0005FC0346002B01D000F092F800233B60B6
:1020AC0000237B603B461946054801F0DDFD0346E5
:1020BC00002B01D000F084F800BF1837BD4680BD5E
:1020CC001C01002080B588B000AF07F1100300227E
:1020DC001A605A609A60DA602F4B9B692E4A43F063
:1020EC00100393612C4B9B6903F01003FB60FB689E
:1020FC00294B9B69284A43F004039361264B9B6947
:10210C0003F00403BB60BB68234B9B69224A43F07A
:10211C0008039361204B9B6903F008037B607B6889
:10212C00002247F6FE711D4800F01FFE002240F20F
:10213C00FF711B4800F019FE4FF460433B61002314
:10214C007B610123BB6107F110031946154800F0B0
:10215C007BFC47F6FE733B6101237B610023BB6173
:10216C000223FB6107F1100319460C4800F06CFCCC
:10217C0040F2FF733B6101237B610023BB610223AF
:10218C00FB6107F110031946054800F05DFC00BF28
:10219C002037BD4680BD00BF001002400008014042
:1021AC00000C01400010014080B582B000AF786097
:1021BC0000F05AF8FDF7EEFF00BF0837BD4680BDB2
:1021CC0080B400AF72B600BFFEE7000080B487B0E9
:1021DC0000AFF860B9607A600023FB7502E0FB7D0C
:1021EC000133FB75FA7D1F4913469B0013449B007A
:1021FC000B441B68002B02D0FB7D272BEFD9FB7DFA
:10220C00282B01D1282327E0FA7D164913469B0081
:10221C0013449B000B44FA681A60FA7D114913466B
:10222C009B0013449B000B440433BA681A60FA7D7C
:10223C000C4913469B0013449B000B4408337A68EB
:10224C001A60FA7D074913469B0013449B000B440C
:10225C000C3300221A70FB7D18461C37BD4680BC1F
:10226C00704700BF6401002080B483B000AF00232E
:10227C00FB715DE0FA79334913469B0013449B00D4
:10228C000B441B68002B50D0FA792E4913469B0047
:10229C0013449B000B4404331B68002B32D1FA7996
:1022AC00284913469B0013449B000B440C331B78AA
:1022BC00FA790133D8B2234913469B0013449B008F
:1022CC000B440C3302461A70FA791E4913469B00D4
:1022DC0013449B000B4408331B68002B25D0F97961
:1022EC00FA7918480B469B000B449B0003440833B7
:1022FC001968144813469B0013449B000344043391
:10230C00196012E0FA790F4913469B0013449B00A5
:10231C000B4404331B68FA79591E0A4813469B0078
:10232C0013449B00034404331960FB790133FB71A4
:10233C00FB79272B9ED900BF00BF0C37BD4680BC54
:10234C00704700BF6401002080B582B000AF00234D
:10235C00FB713AE0FA79214913469B0013449B0028
:10236C000B440C331B78002B2CD0FA791B491346E9
:10237C009B0013449B000B441B689847FA79174940
:10238C0013469B0013449B000B440C331B78FA79C7
:10239C00013BD8B2114913469B0013449B000B44DC
:1023AC000C3302461A70FA790C4913469B001344FD
:1023BC009B000B4408331B68002B03D1FB79184698
:1023CC0000F00EF8FB790133FB71FB79272BC1D997
:1023DC0000BF00BF0837BD4680BD00BF64010020B0
:1023EC0080B483B000AF786015497A6813469B00BF
:1023FC0013449B000B4400221A6011497A6813465F
:10240C009B0013449B000B44043300221A600C49BC
:10241C007A6813469B0013449B000B44083300223C
:10242C001A6007497A6813469B0013449B000B44BF
:10243C000C3300221A7000BF0C37BD4680BC7047AD
:10244C006401002080B485B000AF154B9B69144A21
:10245C0043F001039361124B9B6903F00103BB60D2
:10246C00BB680F4BDB690E4A43F08053D3610C4BB6
:10247C00DB6903F080537B607B680A4B5B68FB6015
:10248C00FB6823F0E063FB60FB6843F08063FB6058
:10249C00044AFB68536000BF1437BD4680BC7047CC
:1024AC00001002400000014080B584B000AF78609D
:1024BC007B681B68B3F1804F13D10C4BDB690B4A63
:1024CC0043F00103D361094BDB6903F00103FB60AB
:1024DC00FB68002200211C2000F07FFA1C2000F079
:1024EC0098FA00BF1037BD4680BD00BF00100240F7
:1024FC0080B400AFFEE780B400AFFEE780B400AF5D
:10250C00FEE780B400AFFEE780B400AFFEE780B416
:10251C0000AF00BFBD4680BC704780B400AF00BFA9
:10252C00BD4680BC704780B400AF00BFBD4680BCC8
:10253C00704780B500AF00F05DF900BF80BD0000B2
:10254C0080B500AF024801F0B9F800BF80BD00BFF4
:10255C001C01002080B400AF00BFBD4680BC70479A
:10256C0080B500AF0122FE21024800F0FEFB00BF47
:10257C0080BD00BF0008014080B500AF00221221D1
:10258C00074800F0F2FB01224421054800F0EDFB66
:10259C0001228821024800F0E8FB00BF80BD00BF8B
:1025AC000008014080B500AF00224421074800F02C
:1025BC00DCFB01221221054800F0D7FB0122882107
:1025CC00024800F0D2FB00BF80BD00BF00080140F4
:1025DC0080B500AF00228821074800F0C6FB01221D
:1025EC004421054800F0C1FB01221221024800F0F1
:1025FC00BCFB00BF80BD00BF0008014080B500AF30
:10260C00012210210E4800F0B0FB012204210C48DD
:10261C0000F0ABFB01220821094800F0A6FB0122C7
:10262C008021074800F0A1FB00220221044800F0A1
:10263C009CFB00224021024800F097FB00BF80BDAC
:10264C000008014080B500AF012210210E4800F0B7
:10265C008CFB012204210C4800F087FB012208218D
:10266C00094800F082FB01224021074800F07DFB65
:10267C0000220221044800F078FB0022802102484D
:10268C0000F073FB00BF80BD0008014080B500AFB7
:10269C00012202210E4800F068FB012280210C4827
:1026AC0000F063FB01220821094800F05EFB0122C7
:1026BC004021074800F059FB00220421044800F097
:1026CC0054FB00221021024800F04FFB00BF80BDDC
:1026DC000008014080B500AF012202210E4800F035
:1026EC0044FB012280210C4800F03FFB0122042115
:1026FC00094800F03AFB01224021074800F035FB65
:10270C0000220821044800F030FB0022102102486E
:10271C0000F02BFB00BF80BD00080140FFF71AFF43
:10272C000B480C490C4A002302E0D458C450043323
:10273C00C4188C42F9D3094A094C002301E01360F8
:10274C000432A242FBD301F0F9FAFFF715FC7047F3
:10275C000000002074000020F03D000874000020F0
:10276C0088040020FEE7000080B500AF084B1B6812
:10277C00074A43F010031360032000F023F90F20E5
:10278C0000F008F8FFF75EFE0023184680BD00BF7E
:10279C000020024080B582B000AF7860124B1A68FE
:1027AC00124B1B7819464FF47A73B3FBF1F3B2FB5F
:1027BC00F3F3184600F03BF90346002B01D001233C
:1027CC000EE07B680F2B0AD8002279684FF0FF309F
:1027DC0000F003F9064A7B681360002300E0012334
:1027EC0018460837BD4680BD6800002070000020E8
:1027FC006C00002080B400AF054B1B781A46054BCB
:10280C001B681344034A136000BFBD4680BC70476D
:10281C00700000208404002080B400AF024B1B68C1
:10282C001846BD4680BC70478404002080B485B037
:10283C0000AF78607B6803F00703FB600C4BDB6830
:10284C00BB60BA684FF6FF031340BB60FB681A020B
:10285C00BB68134343F0BF6343F40033BB60044ACB
:10286C00BB68D36000BF1437BD4680BC704700BF47
:10287C0000ED00E080B400AF044BDB681B0A03F0F2
:10288C0007031846BD4680BC704700BF00ED00E052
:10289C0080B483B000AF0346FB7197F90730002B6F
:1028AC000BDBFB7903F01F02064997F907305B0934
:1028BC00012000FA02F241F8232000BF0C37BD467C
:1028CC0080BC704700E100E080B483B000AF0346E9
:1028DC003960FB7197F90730002B0ADB3B68DAB2E1
:1028EC000C4997F907301201D2B20B4483F800233C
:1028FC000AE03B68DAB20849FB7903F00F03043BAA
:10290C001201D2B20B441A7600BF0C37BD4680BC04
:10291C00704700BF00E100E000ED00E080B489B03A
:10292C0000AFF860B9607A60FB6803F00703FB61E5
:10293C00FB69C3F10703042B28BF0423BB61FB69AC
:10294C000433062B02D9FB69033B00E000237B61B7
:10295C004FF0FF32BB6902FA03F3DA43BB681A404B
:10296C007B699A404FF0FF317B6901FA03F3D9433D
:10297C007B680B40134318462437BD4680BC704718
:10298C0080B582B000AF78607B68013BB3F1807F8B
:10299C0001D301230FE00A4A7B68013B53600F21EE
:1029AC004FF0FF30FFF790FF054B00229A60044B6D
:1029BC0007221A60002318460837BD4680BD00BFA9
:1029CC0010E000E080B582B000AF78607868FFF767
:1029DC002DFF00BF0837BD4680BD80B586B000AF67
:1029EC000346B9607A60FB7300237B61FFF742FFFB
:1029FC0078617A68B9687869FFF790FF024697F9B1
:102A0C000F3011461846FFF75FFF00BF1837BD4661
:102A1C0080BD80B582B000AF0346FB7197F90730DB
:102A2C001846FFF735FF00BF0837BD4680BD80B59F
:102A3C0082B000AF78607868FFF7A2FF03461846B3
:102A4C000837BD4680BD000080B48BB000AF786005
:102A5C00396000237B6200233B6248E101227B6AE0
:102A6C0002FA03F3FB613B681B68FA691340BB6114
:102A7C00BA69FB699A4240F037813B685B68A34AAC
:102A8C0093425ED0A14A934275D8A14A934258D042
:102A9C009F4A93426FD89F4A934252D09D4A934289
:102AAC0069D89D4A93424CD09B4A934263D89B4A27
:102ABC00934246D0994A93425DD8122B2AD8122BB6
:102ACC0059D801A252F823F04F2B0008292B0008EB
:102ADC003B2B00087D2B0008832B0008832B000860
:102AEC00832B0008832B0008832B0008832B000802
:102AFC00832B0008832B0008832B0008832B0008F2
:102B0C00832B0008832B0008832B0008312B000833
:102B1C00452B0008824A934213D02CE03B68DB68BB
:102B2C003B6229E03B68DB6804333B6224E03B6892
:102B3C00DB6808333B621FE03B68DB680C333B62AD
:102B4C001AE03B689B68002B02D104233B6213E024
:102B5C003B689B68012B05D108233B627B68FA69B3
:102B6C001A6109E008233B627B68FA695A6103E049
:102B7C0000233B6200E000BFBB69FF2B01D87B68E0
:102B8C0001E07B6804337B61BB69FF2B02D87B6A55
:102B9C009B0002E07B6A083B9B003B617B691A68E7
:102BAC000F213B6901FA03F3DB431A40396A3B6995
:102BBC0001FA03F31A437B691A603B685B6803F004
:102BCC008053002B00F09080564B9B69554A43F084
:102BDC0001039361534B9B6903F00103BB60BB681A
:102BEC00514A7B6A9B08023352F82330FB607B6AA4
:102BFC0003F003039B000F2202FA03F3DB43FA6892
:102C0C001340FB607B68494A93420DD07B68484A6D
:102C1C00934207D07B68474A934201D1022304E0D8
:102C2C00032302E0012300E000237A6A02F003028E
:102C3C0092009340FA681343FB603B497B6A9B0804
:102C4C000233FA6841F823203B685B6803F4801375
:102C5C00002B06D0384B9A683749BB6913438B60FD
:102C6C0006E0354B9A68BB69DB43334913408B60F4
:102C7C003B685B6803F40013002B06D02E4BDA681C
:102C8C002D49BB691343CB6006E02B4BDA68BB695B
:102C9C00DB4329491340CB603B685B6803F400338A
:102CAC00002B06D0244B5A682349BB6913434B6055
:102CBC0006E0214B5A68BB69DB431F4913404B604C
:102CCC003B685B6803F48033002B06D01A4B1A6800
:102CDC001949BB6913430B6006E0174B1A68BB69B3
:102CEC00DB43154913400B607B6A01337B623B6805
:102CFC001A687B6A22FA03F3002B7FF4AFAE00BF95
:102D0C0000BF2C37BD4680BC704700BF000032109E
:102D1C0000003110000022100000211000001210E1
:102D2C00000011100010024000000140000801409A
:102D3C00000C0140001001400004014080B485B03B
:102D4C0000AF78600B467B807B689A687B88134069
:102D5C00002B02D00123FB7301E00023FB73FB7BF0
:102D6C0018461437BD4680BC704780B483B000AFA2
:102D7C0078600B467B8013467B707B78002B03D0EE
:102D8C007A887B681A6103E07B881A047B681A6175
:102D9C0000BF0C37BD4680BC704780B485B000AF17
:102DAC0078600B467B807B68DB68FB607A88FB680D
:102DBC0013401A04FB68D9437B880B401A437B6889
:102DCC001A6100BF1437BD4680BC704780B586B011
:102DDC0000AF78607B68002B01D101236CE27B682B
:102DEC001B6803F00103002B00F08780924B5B689B
:102DFC0003F00C03042B0CD08F4B5B6803F00C031B
:102E0C00082B12D18C4B5B6803F48033B3F5803FF5
:102E1C000BD1894B1B6803F40033002B6CD07B68FF
:102E2C005B68002B68D1012346E27B685B68B3F5D5
:102E3C00803F06D1804B1B687F4A43F4803313607C
:102E4C002EE07B685B68002B0CD17B4B1B687A4AAD
:102E5C0023F480331360784B1B68774A23F4802368
:102E6C0013601DE07B685B68B3F5A02F0CD1724B2F
:102E7C001B68714A43F4802313606F4B1B686E4AC6
:102E8C0043F4803313600BE06B4B1B686A4A23F4EA
:102E9C0080331360684B1B68674A23F480231360EC
:102EAC007B685B68002B13D0FFF7B6FC386108E039
:102EBC00FFF7B2FC02463B69D31A642B01D90323FA
:102ECC00FAE15D4B1B6803F40033002BF0D014E0E7
:102EDC00FFF7A2FC386108E0FFF79EFC02463B6955
:102EEC00D31A642B01D90323E6E1534B1B6803F47B
:102EFC000033002BF0D100E000BF7B681B6803F0AF
:102F0C000203002B63D04C4B5B6803F00C03002BCB
:102F1C000BD0494B5B6803F00C03082B1CD1464BC0
:102F2C005B6803F48033002B16D1434B1B6803F012
:102F3C000203002B05D07B681B69012B01D00123F8
:102F4C00BAE13D4B1B6823F0F8027B685B69DB0040
:102F5C00394913430B603AE07B681B69002B20D086
:102F6C00364B01221A60FFF757FC386108E0FFF777
:102F7C0053FC02463B69D31A022B01D903239BE174
:102F8C002D4B1B6803F00203002BF0D02A4B1B685F
:102F9C0023F0F8027B685B69DB00274913430B6065
:102FAC0015E0264B00221A60FFF736FC386108E06A
:102FBC00FFF732FC02463B69D31A022B01D90323DB
:102FCC007AE11D4B1B6803F00203002BF0D17B68E8
:102FDC001B6803F00803002B3AD07B689B69002B1D
:102FEC0019D0174B01221A60FFF716FC386108E064
:102FFC00FFF712FC02463B69D31A022B01D90323BB
:10300C005AE10D4B5B6A03F00203002BF0D0012058
:10301C0000F09AFA1CE00A4B00221A60FFF7FCFB46
:10302C0038610FE0FFF7F8FB02463B69D31A022B1D
:10303C0008D9032340E100BF0010024000004242C7
:10304C00800442429E4B5B6A03F00203002BE9D1E1
:10305C007B681B6803F00403002B00F0A6800023A0
:10306C00FB75974BDB6903F08053002B0DD1944B10
:10307C00DB69934A43F08053D361914BDB6903F0D6
:10308C008053BB60BB680123FB758E4B1B6803F43C
:10309C008073002B18D18B4B1B688A4A43F48073C6
:1030AC001360FFF7B9FB386108E0FFF7B5FB024688
:1030BC003B69D31A642B01D90323FDE0814B1B68B8
:1030CC0003F48073002BF0D07B68DB68012B06D1F6
:1030DC007B4B1B6A7A4A43F0010313622DE07B6839
:1030EC00DB68002B0CD1764B1B6A754A23F001036D
:1030FC001362734B1B6A724A23F0040313621CE0C5
:10310C007B68DB68052B0CD16D4B1B6A6C4A43F05A
:10311C00040313626A4B1B6A694A43F0010313628E
:10312C000BE0674B1B6A664A23F001031362644B86
:10313C001B6A634A23F0040313627B68DB68002B71
:10314C0015D0FFF769FB38610AE0FFF765FB024613
:10315C003B69D31A41F28832934201D90323ABE085
:10316C00574B1B6A03F00203002BEED014E0FFF761
:10317C0053FB38610AE0FFF74FFB02463B69D31A59
:10318C0041F28832934201D9032395E04C4B1B6AE0
:10319C0003F00203002BEED1FB7D012B05D1484B34
:1031AC00DB69474A23F08053D3617B68DB69002BD2
:1031BC0000F08180424B5B6803F00C03082B61D05C
:1031CC007B68DB69022B46D13F4B00221A60FFF76C
:1031DC0023FB386108E0FFF71FFB02463B69D31A5B
:1031EC00022B01D9032367E0354B1B6803F00073F6
:1031FC00002BF0D17B681B6AB3F5803F08D1304BB4
:10320C005B6823F400327B689B682D4913434B6049
:10321C002B4B5B6823F474127B68196A7B685B6ABE
:10322C000B43274913434B60274B01221A60FFF7CE
:10323C00F3FA386108E0FFF7EFFA02463B69D31A5C
:10324C00022B01D9032337E01D4B1B6803F00073DD
:10325C00002BF0D02FE01C4B00221A60FFF7DCFA99
:10326C00386108E0FFF7D8FA02463B69D31A022B03
:10327C0001D9032320E0124B1B6803F00073002BD1
:10328C00F0D118E07B68DB69012B01D1012313E03D
:10329C000B4B5B68FB60FB6803F480327B681B6A3A
:1032AC009A4206D1FB6803F470127B685B6A9A42FF
:1032BC0001D0012300E0002318461837BD4680BD1D
:1032CC0000100240007000406000424280B584B0A3
:1032DC0000AF786039607B68002B01D10123D0E00E
:1032EC006A4B1B6803F007033A689A4210D9674B84
:1032FC001B6823F0070265493B6813430B60634B63
:10330C001B6803F007033A689A4201D00123B8E026
:10331C007B681B6803F00203002B20D07B681B68C2
:10332C0003F00403002B05D0594B5B68584A43F457
:10333C00E06353607B681B6803F00803002B05D027
:10334C00534B5B68524A43F460535360504B5B6879
:10335C0023F0F0027B689B684D4913434B607B68FC
:10336C001B6803F00103002B40D07B685B68012BCA
:10337C0007D1474B1B6803F40033002B15D10123F5
:10338C007FE07B685B68022B07D1414B1B6803F025
:10339C000073002B09D1012373E03D4B1B6803F034
:1033AC000203002B01D101236BE0394B5B6823F046
:1033BC0003027B685B68364913434B60FFF72CFABA
:1033CC00F8600AE0FFF728FA0246FB68D31A41F2CC
:1033DC008832934201D9032353E02D4B5B6803F0F1
:1033EC000C027B685B689B009A42EBD1274B1B68F5
:1033FC0003F007033A689A4210D2244B1B6823F05F
:10340C00070222493B6813430B60204B1B6803F0F7
:10341C0007033A689A4201D0012332E07B681B68AB
:10342C0003F00403002B08D0194B5B6823F4E06213
:10343C007B68DB68164913434B607B681B6803F0A1
:10344C000803002B09D0124B5B6823F460527B6895
:10345C001B69DB000E4913434B6000F021F8024658
:10346C000B4B5B681B0903F00F030A49CB5C22FA78
:10347C0003F3094A1360094B1B681846FFF78AF9D6
:10348C00002318461037BD4680BD00BF0020024007
:10349C0000100240C43D0008680000206C000020B1
:1034AC0080B487B000AF0023FB600023BB60002317
:1034BC007B6100237B6000233B611E4B5B68FB60E0
:1034CC00FB6803F00C03042B02D0082B03D027E07D
:1034DC00194B3B6127E0FB689B0C03F00F03174A69
:1034EC00D35C7B60FB6803F48033002B10D0114B52
:1034FC005B685B0C03F00103114AD35CBB607B6817
:10350C000D4A02FB03F2BB68B2FBF3F37B6104E0F0
:10351C007B680C4A02FB03F37B617B693B6102E035
:10352C00054B3B6100BF3B6918461C37BD4680BC50
:10353C00704700BF0010024000127A00D43D000812
:10354C00E43D000800093D0080B485B000AF786010
:10355C000A4B1B680A4AA2FB03235B0A7A6802FB2C
:10356C0003F3FB6000BFFB685A1EFA60002BF9D115
:10357C0000BF00BF1437BD4680BC704768000020F8
:10358C00D34D621080B582B000AF78607B68002BA1
:10359C0001D1012341E07B6893F83D30DBB2002B75
:1035AC0006D17B68002283F83C207868FEF77CFF0C
:1035BC007B68022283F83D207B681A687B680433A1
:1035CC001946104600F056FA7B68012283F8462013
:1035DC007B68012283F83E207B68012283F83F2020
:1035EC007B68012283F840207B68012283F841200C
:1035FC007B68012283F842207B68012283F84320F8
:10360C007B68012283F844207B68012283F84520E3
:10361C007B68012283F83D20002318460837BD46FD
:10362C0080BD000080B485B000AF78607B6893F8F3
:10363C003D30DBB2012B01D0012335E07B68022247
:10364C0083F83D207B681B68DA687B681B6842F056
:10365C000102DA607B681B68164A934209D07B68CA
:10366C001B68B3F1804F04D07B681B68124A9342ED
:10367C0011D17B681B689B6803F00703FB60FB6838
:10368C00062B10D07B681B681A687B681B6842F09D
:10369C0001021A6007E07B681B681A687B681B686C
:1036AC0042F001021A60002318461437BD4680BC54
:1036BC00704700BF002C01400004004080B584B06E
:1036CC0000AF78607B681B68DB68FB607B681B68FD
:1036DC001B69BB60BB6803F00203002B20D0FB68A6
:1036EC0003F00203002B1BD07B681B686FF00202F7
:1036FC001A617B6801221A777B681B689B6903F04F
:10370C000303002B03D0786800F098F905E0786883
:10371C0000F08BF9786800F09AF97B6800221A7730
:10372C00BB6803F00403002B20D0FB6803F00403F8
:10373C00002B1BD07B681B686FF004021A617B683E
:10374C0002221A777B681B689B6903F44073002B79
:10375C0003D0786800F072F905E0786800F065F93C
:10376C00786800F074F97B6800221A77BB6803F064
:10377C000803002B20D0FB6803F00803002B1BD0A0
:10378C007B681B686FF008021A617B6804221A7749
:10379C007B681B68DB6903F00303002B03D078689C
:1037AC0000F04CF905E0786800F03FF9786800F01B
:1037BC004EF97B6800221A77BB6803F01003002BCC
:1037CC0020D0FB6803F01003002B1BD07B681B6818
:1037DC006FF010021A617B6808221A777B681B68ED
:1037EC00DB6903F44073002B03D0786800F026F9F2
:1037FC0005E0786800F019F9786800F028F97B6822
:10380C0000221A77BB6803F00103002B0CD0FB6875
:10381C0003F00103002B07D07B681B686FF00102DB
:10382C001A617868FEF7C0FCBB6803F08003002BBC
:10383C000CD0FB6803F08003002B07D07B681B685F
:10384C006FF080021A61786800F06FFABB6803F0C1
:10385C004003002B0CD0FB6803F04003002B07D077
:10386C007B681B686FF040021A61786800F0F8F80A
:10387C00BB6803F02003002B0CD0FB6803F0200383
:10388C00002B07D07B681B686FF020021A617868E8
:10389C0000F042FA00BF1037BD4680BD80B584B041
:1038AC0000AF786039600023FB737B6893F83C3081
:1038BC00012B01D10223B4E07B68012283F83C2068
:1038CC007B68022283F83D207B681B689B68BB6089
:1038DC00BB6823F07703BB60BB6823F47F43BB60FA
:1038EC007B681B68BA689A603B681B68B3F5005F1D
:1038FC003ED0B3F5005F00F28780B3F5805F00F037
:10390C008680B3F5805F7FD8702B1AD0702B7BD854
:10391C00602B50D0602B77D8502B3CD0502B73D8C9
:10392C00402B58D0402B6FD8302B64D0302B6BD819
:10393C00202B60D0202B67D8002B5CD0102B5AD0BA
:10394C0062E07B6818683B6899683B685A683B681A
:10395C00DB6800F06AF97B681B689B68BB60BB681E
:10396C0043F07703BB607B681B68BA689A604FE0D2
:10397C007B6818683B6899683B685A683B68DB68E9
:10398C0000F053F97B681B689A687B681B6842F4EB
:10399C0080429A603CE07B6818683B6859683B68D9
:1039AC00DB681A4600F0CAF87B681B685021184681
:1039BC0000F021F92CE07B6818683B6859683B687B
:1039CC00DB681A4600F0E8F87B681B686021184633
:1039DC0000F011F91CE07B6818683B6859683B687B
:1039EC00DB681A4600F0AAF87B681B684021184671
:1039FC0000F001F90CE07B681A683B681B681946FB
:103A0C00104600F0F8F803E00123FB7300E000BF60
:103A1C007B68012283F83D207B68002283F83C20E0
:103A2C00FB7B18461037BD4680BD80B483B000AF19
:103A3C00786000BF0C37BD4680BC704780B483B043
:103A4C0000AF786000BF0C37BD4680BC704780B4B7
:103A5C0083B000AF786000BF0C37BD4680BC7047A8
:103A6C0080B483B000AF786000BF0C37BD4680BC1B
:103A7C007047000080B485B000AF786039607B6817
:103A8C001B68FB607B682B4A934207D07B68B3F1C1
:103A9C00804F03D07B68284A934208D1FB6823F0FF
:103AAC007003FB603B685B68FA681343FB607B68E0
:103ABC00204A934207D07B68B3F1804F03D07B68D8
:103ACC001D4A934208D1FB6823F44073FB603B68AA
:103ADC00DB68FA681343FB60FB6823F080023B68E9
:103AEC005B691343FB607B68FA681A603B689A68F1
:103AFC007B68DA623B681A687B689A627B680D4A5D
:103B0C00934203D13B681A697B681A637B68012274
:103B1C005A617B681B6903F00103002B05D07B689D
:103B2C001B6923F001027B681A6100BF1437BD4684
:103B3C0080BC7047002C01400004004080B487B06A
:103B4C0000AFF860B9607A60FB681B6A7B61FB6848
:103B5C001B6A23F00102FB681A62FB689B693B61DC
:103B6C003B6923F0F0033B617B681B013A6913430B
:103B7C003B617B6923F00A037B617A69BB68134361
:103B8C007B61FB683A699A61FB687A691A6200BFCB
:103B9C001C37BD4680BC704780B487B000AFF8605E
:103BAC00B9607A60FB681B6A7B61FB681B6A23F057
:103BBC001002FB681A62FB689B693B613B6923F44A
:103BCC0070433B617B681B033A6913433B617B6920
:103BDC0023F0A0037B61BB681B017A6913437B61F3
:103BEC00FB683A699A61FB687A691A6200BF1C37F4
:103BFC00BD4680BC704780B485B000AF786039603A
:103C0C007B689B68FB60FB6823F07003FB603A6881
:103C1C00FB68134343F00703FB607B68FA689A6008
:103C2C0000BF1437BD4680BC704780B487B000AF6E
:103C3C00F860B9607A603B60FB689B687B617B696C
:103C4C0023F47F437B613B681A027B681A43BB6891
:103C5C0013437A6913437B61FB687A699A6000BFEE
:103C6C001C37BD4680BC704780B485B000AF78600F
:103C7C0039607B6893F83C30012B01D1022341E081
:103C8C007B68012283F83C207B68022283F83D206C
:103C9C007B681B685B68FB607B681B689B68BB6010
:103CAC00FB6823F07003FB603B681B68FA681343E6
:103CBC00FB607B681B68FA685A607B681B68144A57
:103CCC00934209D07B681B68B3F1804F04D07B68AA
:103CDC001B68104A93420CD1BB6823F08003BB6075
:103CEC003B685B68BA681343BB607B681B68BA6847
:103CFC009A607B68012283F83D207B68002283F860
:103D0C003C20002318461437BD4680BC704700BFCA
:103D1C00002C01400004004080B483B000AF7860F8
:103D2C0000BF0C37BD4680BC704780B483B000AF79
:103D3C00786000BF0C37BD4680BC704770B500265C
:103D4C000C4D0D4C641BA410A64209D100F022F8B6
:103D5C0000260A4D0A4C641BA410A64205D170BD66
:103D6C0055F8043B98470136EEE755F8043B984765
:103D7C000136F2E7E83D0008E83D0008E83D0008A0
:103D8C00EC3D000803460244934200D1704703F80F
:103D9C00011BF9E7F8B500BFF8BC08BC9E4670479C
:0C3DAC00F8B500BFF8BC08BC9E4670478C
:103DB800FC60DAF266B6BEE0FEF600000000000025
:103DC80000000000010203040607080902030405B5
:103DD800060708090A0B0C0D0E0F1010010200004F
:043DE800310100089D
:043DEC000D010008BD
:103DF00001000000010000000100000001000000BF
:103E000001000000010000000100000001000000AE
:103E1000010000000100000001000000010000009E
:103E2000C8000000C8000000C800000000100140E9
:103E30000010014000100140002000400080000000
:103E40000500000003000000010000000500000064
:103E5000030000000100000000127A0010000000C2
:043E6000010000005D
:04000005080027299F
:00000001FF
